{
  "contractName": "Helper",
  "abi": [
    {
      "inputs": [
        {
          "internalType": "address",
          "name": "tokenAddress",
          "type": "address"
        }
      ],
      "name": "isERC20",
      "outputs": [
        {
          "internalType": "bool",
          "name": "",
          "type": "bool"
        }
      ],
      "stateMutability": "view",
      "type": "function"
    }
  ],
  "bytecode": "0x608060405234801561001057600080fd5b5061029a806100206000396000f3fe608060405234801561001057600080fd5b506004361061002b5760003560e01c8063263e0c1b14610030575b600080fd5b61004a60048036038101906100459190610152565b610060565b604051610057919061019a565b60405180910390f35b6000806336372b0760e01b90508273ffffffffffffffffffffffffffffffffffffffff166301ffc9a7826040518263ffffffff1660e01b81526004016100a691906101f0565b602060405180830381865afa1580156100c3573d6000803e3d6000fd5b505050506040513d601f19601f820116820180604052508101906100e79190610237565b915050919050565b600080fd5b600073ffffffffffffffffffffffffffffffffffffffff82169050919050565b600061011f826100f4565b9050919050565b61012f81610114565b811461013a57600080fd5b50565b60008135905061014c81610126565b92915050565b600060208284031215610168576101676100ef565b5b60006101768482850161013d565b91505092915050565b60008115159050919050565b6101948161017f565b82525050565b60006020820190506101af600083018461018b565b92915050565b60007fffffffff0000000000000000000000000000000000000000000000000000000082169050919050565b6101ea816101b5565b82525050565b600060208201905061020560008301846101e1565b92915050565b6102148161017f565b811461021f57600080fd5b50565b6000815190506102318161020b565b92915050565b60006020828403121561024d5761024c6100ef565b5b600061025b84828501610222565b9150509291505056fea26469706673582212204068e545e31f6c93d4d450c09172ffeaf63552643873f232e29b216c88af5cff64736f6c63430008120033",
  "immutableReferences": {},
  "source": "// SPDX-License-Identifier: MIT\npragma solidity ^0.8.9;\n\nimport \"./ERC20.sol\";\n\ninterface ERC165 {\n    function supportsInterface(bytes4 interfaceId) external view returns (bool);\n}\n\ncontract Helper {\n    // constructor()\n    //     public\n    //     VRFConsumerBase(\n    //         0x6168499c0cFfCaCD319c818142124B7A15E857ab, // VRF Coordinator\n    //         0x01BE23585060835E02B77ef475b0Cc51aA1e0709 // LINK Token\n    //     )\n    // {\n    //     keyHash = 0x2ed0feb3e7fd2022120aa84fab1945545a9f2ffc9076fd6156fa96eaff4c1311;\n    //     fee = 100000000000000000;\n    // }\n\n    function isERC20(address tokenAddress) public view returns (bool) {\n        bytes4 erc20InterfaceId = 0x36372b07;\n        return ERC165(tokenAddress).supportsInterface(erc20InterfaceId);\n    }\n}\n",
  "sourcePath": "/Users/tranguyenduy/Documents/GitHub/solidity/fist-truffle/contracts/poker/Helper.sol",
  "compiler": {
    "name": "solc",
    "version": "0.8.18+commit.87f61d96.Emscripten.clang"
  },
  "schemaVersion": "3.4.12",
  "updatedAt": "2023-03-13T10:03:28.248Z",
  "devdoc": {
    "kind": "dev",
    "methods": {},
    "version": 1
  },
  "userdoc": {
    "kind": "user",
    "methods": {},
    "version": 1
  }
}