{
  "contractName": "Poker",
  "abi": [
    {
      "anonymous": false,
      "inputs": [
        {
          "indexed": true,
          "internalType": "address",
          "name": "owner",
          "type": "address"
        },
        {
          "indexed": true,
          "internalType": "address",
          "name": "spender",
          "type": "address"
        },
        {
          "indexed": false,
          "internalType": "uint256",
          "name": "value",
          "type": "uint256"
        }
      ],
      "name": "Approval",
      "type": "event"
    },
    {
      "anonymous": false,
      "inputs": [
        {
          "indexed": false,
          "internalType": "address",
          "name": "claimer",
          "type": "address"
        },
        {
          "indexed": false,
          "internalType": "uint256",
          "name": "battle",
          "type": "uint256"
        },
        {
          "indexed": false,
          "internalType": "uint256",
          "name": "amount",
          "type": "uint256"
        }
      ],
      "name": "ClaimBattleEvent",
      "type": "event"
    },
    {
      "anonymous": false,
      "inputs": [
        {
          "indexed": false,
          "internalType": "address",
          "name": "owner",
          "type": "address"
        },
        {
          "indexed": false,
          "internalType": "address",
          "name": "betToken",
          "type": "address"
        },
        {
          "indexed": false,
          "internalType": "uint256",
          "name": "amount",
          "type": "uint256"
        }
      ],
      "name": "CreateBattle",
      "type": "event"
    },
    {
      "anonymous": false,
      "inputs": [
        {
          "indexed": false,
          "internalType": "address",
          "name": "owner",
          "type": "address"
        },
        {
          "indexed": false,
          "internalType": "address",
          "name": "player",
          "type": "address"
        },
        {
          "indexed": false,
          "internalType": "address",
          "name": "bet_token",
          "type": "address"
        },
        {
          "indexed": false,
          "internalType": "address",
          "name": "winner",
          "type": "address"
        },
        {
          "indexed": false,
          "internalType": "uint256",
          "name": "amount",
          "type": "uint256"
        }
      ],
      "name": "ExecuteBattle",
      "type": "event"
    },
    {
      "anonymous": false,
      "inputs": [
        {
          "indexed": false,
          "internalType": "address",
          "name": "owner",
          "type": "address"
        },
        {
          "indexed": false,
          "internalType": "address",
          "name": "player",
          "type": "address"
        },
        {
          "indexed": false,
          "internalType": "address",
          "name": "bet_token",
          "type": "address"
        },
        {
          "indexed": false,
          "internalType": "uint256",
          "name": "amount",
          "type": "uint256"
        }
      ],
      "name": "JoinBattleEvent",
      "type": "event"
    },
    {
      "anonymous": false,
      "inputs": [
        {
          "indexed": true,
          "internalType": "address",
          "name": "previousOwner",
          "type": "address"
        },
        {
          "indexed": true,
          "internalType": "address",
          "name": "newOwner",
          "type": "address"
        }
      ],
      "name": "OwnershipTransferred",
      "type": "event"
    },
    {
      "anonymous": false,
      "inputs": [
        {
          "indexed": true,
          "internalType": "address",
          "name": "from",
          "type": "address"
        },
        {
          "indexed": true,
          "internalType": "address",
          "name": "to",
          "type": "address"
        },
        {
          "indexed": false,
          "internalType": "uint256",
          "name": "value",
          "type": "uint256"
        }
      ],
      "name": "Transfer",
      "type": "event"
    },
    {
      "inputs": [
        {
          "internalType": "address",
          "name": "spender",
          "type": "address"
        },
        {
          "internalType": "address",
          "name": "to",
          "type": "address"
        },
        {
          "internalType": "uint256",
          "name": "value",
          "type": "uint256"
        }
      ],
      "name": "TransferFromTo",
      "outputs": [
        {
          "internalType": "bool",
          "name": "",
          "type": "bool"
        }
      ],
      "stateMutability": "nonpayable",
      "type": "function"
    },
    {
      "inputs": [
        {
          "internalType": "address",
          "name": "owner",
          "type": "address"
        },
        {
          "internalType": "address",
          "name": "spender",
          "type": "address"
        }
      ],
      "name": "allowance",
      "outputs": [
        {
          "internalType": "uint256",
          "name": "",
          "type": "uint256"
        }
      ],
      "stateMutability": "view",
      "type": "function"
    },
    {
      "inputs": [
        {
          "internalType": "address",
          "name": "spender",
          "type": "address"
        },
        {
          "internalType": "uint256",
          "name": "value",
          "type": "uint256"
        }
      ],
      "name": "approve",
      "outputs": [
        {
          "internalType": "bool",
          "name": "",
          "type": "bool"
        }
      ],
      "stateMutability": "nonpayable",
      "type": "function"
    },
    {
      "inputs": [
        {
          "internalType": "address",
          "name": "owner",
          "type": "address"
        }
      ],
      "name": "balanceOf",
      "outputs": [
        {
          "internalType": "uint256",
          "name": "",
          "type": "uint256"
        }
      ],
      "stateMutability": "view",
      "type": "function"
    },
    {
      "inputs": [
        {
          "internalType": "uint256",
          "name": "",
          "type": "uint256"
        }
      ],
      "name": "battleToOwner",
      "outputs": [
        {
          "internalType": "address",
          "name": "",
          "type": "address"
        }
      ],
      "stateMutability": "view",
      "type": "function"
    },
    {
      "inputs": [
        {
          "internalType": "uint256",
          "name": "",
          "type": "uint256"
        }
      ],
      "name": "battles",
      "outputs": [
        {
          "internalType": "address",
          "name": "owner",
          "type": "address"
        },
        {
          "internalType": "address",
          "name": "player",
          "type": "address"
        },
        {
          "internalType": "address",
          "name": "winner",
          "type": "address"
        },
        {
          "internalType": "address",
          "name": "bet_token",
          "type": "address"
        },
        {
          "internalType": "uint256",
          "name": "amount",
          "type": "uint256"
        },
        {
          "internalType": "enum PokerStruct.BattleState",
          "name": "state",
          "type": "uint8"
        }
      ],
      "stateMutability": "view",
      "type": "function"
    },
    {
      "inputs": [],
      "name": "decimals",
      "outputs": [
        {
          "internalType": "uint8",
          "name": "",
          "type": "uint8"
        }
      ],
      "stateMutability": "view",
      "type": "function"
    },
    {
      "inputs": [
        {
          "internalType": "address",
          "name": "spender",
          "type": "address"
        },
        {
          "internalType": "uint256",
          "name": "subtractedValue",
          "type": "uint256"
        }
      ],
      "name": "decreaseAllowance",
      "outputs": [
        {
          "internalType": "bool",
          "name": "",
          "type": "bool"
        }
      ],
      "stateMutability": "nonpayable",
      "type": "function"
    },
    {
      "inputs": [
        {
          "internalType": "address",
          "name": "spender",
          "type": "address"
        },
        {
          "internalType": "uint256",
          "name": "addedValue",
          "type": "uint256"
        }
      ],
      "name": "increaseAllowance",
      "outputs": [
        {
          "internalType": "bool",
          "name": "",
          "type": "bool"
        }
      ],
      "stateMutability": "nonpayable",
      "type": "function"
    },
    {
      "inputs": [
        {
          "internalType": "address",
          "name": "tokenAddress",
          "type": "address"
        }
      ],
      "name": "isERC20",
      "outputs": [
        {
          "internalType": "bool",
          "name": "",
          "type": "bool"
        }
      ],
      "stateMutability": "view",
      "type": "function"
    },
    {
      "inputs": [],
      "name": "name",
      "outputs": [
        {
          "internalType": "string",
          "name": "",
          "type": "string"
        }
      ],
      "stateMutability": "view",
      "type": "function"
    },
    {
      "inputs": [
        {
          "internalType": "address",
          "name": "UserBehaviorContract",
          "type": "address"
        }
      ],
      "name": "setOnlyUserBehaviorContract",
      "outputs": [],
      "stateMutability": "nonpayable",
      "type": "function"
    },
    {
      "inputs": [],
      "name": "symbol",
      "outputs": [
        {
          "internalType": "string",
          "name": "",
          "type": "string"
        }
      ],
      "stateMutability": "view",
      "type": "function"
    },
    {
      "inputs": [],
      "name": "totalSupply",
      "outputs": [
        {
          "internalType": "uint256",
          "name": "",
          "type": "uint256"
        }
      ],
      "stateMutability": "view",
      "type": "function"
    },
    {
      "inputs": [
        {
          "internalType": "address",
          "name": "to",
          "type": "address"
        },
        {
          "internalType": "uint256",
          "name": "value",
          "type": "uint256"
        }
      ],
      "name": "transfer",
      "outputs": [
        {
          "internalType": "bool",
          "name": "",
          "type": "bool"
        }
      ],
      "stateMutability": "nonpayable",
      "type": "function"
    },
    {
      "inputs": [
        {
          "internalType": "address",
          "name": "from",
          "type": "address"
        },
        {
          "internalType": "address",
          "name": "to",
          "type": "address"
        },
        {
          "internalType": "uint256",
          "name": "value",
          "type": "uint256"
        }
      ],
      "name": "transferFrom",
      "outputs": [
        {
          "internalType": "bool",
          "name": "",
          "type": "bool"
        }
      ],
      "stateMutability": "nonpayable",
      "type": "function"
    },
    {
      "inputs": [
        {
          "internalType": "address",
          "name": "_token",
          "type": "address"
        },
        {
          "internalType": "uint256",
          "name": "_amount",
          "type": "uint256"
        }
      ],
      "name": "createBattle",
      "outputs": [],
      "stateMutability": "nonpayable",
      "type": "function"
    },
    {
      "inputs": [
        {
          "internalType": "uint256",
          "name": "_battleId",
          "type": "uint256"
        }
      ],
      "name": "joinBattle",
      "outputs": [],
      "stateMutability": "nonpayable",
      "type": "function"
    },
    {
      "inputs": [
        {
          "internalType": "uint256",
          "name": "_battleId",
          "type": "uint256"
        }
      ],
      "name": "executeBattle",
      "outputs": [],
      "stateMutability": "nonpayable",
      "type": "function"
    },
    {
      "inputs": [
        {
          "internalType": "uint256",
          "name": "_battleId",
          "type": "uint256"
        }
      ],
      "name": "claimBattle",
      "outputs": [],
      "stateMutability": "nonpayable",
      "type": "function"
    }
  ],
  "bytecode": "0x60806040523480156200001157600080fd5b506040518060400160405280600381526020017f48414b000000000000000000000000000000000000000000000000000000000081525060009081620000589190620004e1565b506040518060400160405280601281526020017f446976657267656e7420496e2048656172740000000000000000000000000000815250600190816200009f9190620004e1565b506012600260006101000a81548160ff021916908360ff160217905550600260009054906101000a900460ff1660ff16600a620000dd91906200074b565b620f4240620000ed91906200079c565b600381905550600354600660003373ffffffffffffffffffffffffffffffffffffffff1673ffffffffffffffffffffffffffffffffffffffff1681526020019081526020016000208190555033600460006101000a81548173ffffffffffffffffffffffffffffffffffffffff021916908373ffffffffffffffffffffffffffffffffffffffff160217905550600460009054906101000a900473ffffffffffffffffffffffffffffffffffffffff1673ffffffffffffffffffffffffffffffffffffffff16600073ffffffffffffffffffffffffffffffffffffffff167f8be0079c531659141344cd1fd0a4f28419497f9722a3daafe3b4186f6b6457e060405160405180910390a33373ffffffffffffffffffffffffffffffffffffffff16600073ffffffffffffffffffffffffffffffffffffffff167fddf252ad1be2c89b69c2b068fc378daa952ba7f163c4a11628f55a4df523b3ef600354604051620002599190620007f8565b60405180910390a362000815565b600081519050919050565b7f4e487b7100000000000000000000000000000000000000000000000000000000600052604160045260246000fd5b7f4e487b7100000000000000000000000000000000000000000000000000000000600052602260045260246000fd5b60006002820490506001821680620002e957607f821691505b602082108103620002ff57620002fe620002a1565b5b50919050565b60008190508160005260206000209050919050565b60006020601f8301049050919050565b600082821b905092915050565b600060088302620003697fffffffffffffffffffffffffffffffffffffffffffffffffffffffffffffffff826200032a565b6200037586836200032a565b95508019841693508086168417925050509392505050565b6000819050919050565b6000819050919050565b6000620003c2620003bc620003b6846200038d565b62000397565b6200038d565b9050919050565b6000819050919050565b620003de83620003a1565b620003f6620003ed82620003c9565b84845462000337565b825550505050565b600090565b6200040d620003fe565b6200041a818484620003d3565b505050565b5b8181101562000442576200043660008262000403565b60018101905062000420565b5050565b601f82111562000491576200045b8162000305565b62000466846200031a565b8101602085101562000476578190505b6200048e62000485856200031a565b8301826200041f565b50505b505050565b600082821c905092915050565b6000620004b66000198460080262000496565b1980831691505092915050565b6000620004d18383620004a3565b9150826002028217905092915050565b620004ec8262000267565b67ffffffffffffffff81111562000508576200050762000272565b5b620005148254620002d0565b6200052182828562000446565b600060209050601f83116001811462000559576000841562000544578287015190505b620005508582620004c3565b865550620005c0565b601f198416620005698662000305565b60005b8281101562000593578489015182556001820191506020850194506020810190506200056c565b86831015620005b35784890151620005af601f891682620004a3565b8355505b6001600288020188555050505b505050505050565b7f4e487b7100000000000000000000000000000000000000000000000000000000600052601160045260246000fd5b60008160011c9050919050565b6000808291508390505b600185111562000656578086048111156200062e576200062d620005c8565b5b60018516156200063e5780820291505b80810290506200064e85620005f7565b94506200060e565b94509492505050565b60008262000671576001905062000744565b8162000681576000905062000744565b81600181146200069a5760028114620006a557620006db565b600191505062000744565b60ff841115620006ba57620006b9620005c8565b5b8360020a915084821115620006d457620006d3620005c8565b5b5062000744565b5060208310610133831016604e8410600b8410161715620007155782820a9050838111156200070f576200070e620005c8565b5b62000744565b62000724848484600162000604565b925090508184048111156200073e576200073d620005c8565b5b81810290505b9392505050565b600062000758826200038d565b915062000765836200038d565b9250620007947fffffffffffffffffffffffffffffffffffffffffffffffffffffffffffffffff84846200065f565b905092915050565b6000620007a9826200038d565b9150620007b6836200038d565b9250828202620007c6816200038d565b91508282048414831517620007e057620007df620005c8565b5b5092915050565b620007f2816200038d565b82525050565b60006020820190506200080f6000830184620007e7565b92915050565b6134d780620008256000396000f3fe608060405234801561001057600080fd5b506004361061012c5760003560e01c8063606d2e96116100ad578063a457c2d711610071578063a457c2d71461036e578063a9059cbb1461039e578063ac7a8638146103ce578063c0726e91146103fe578063dd62ed3e1461041a5761012c565b8063606d2e961461029f57806362c0cf8d146102d457806370a08231146102f057806395d89b41146103205780639e38ddae1461033e5761012c565b8063263e0c1b116100f4578063263e0c1b146101e9578063313ce5671461021957806339509351146102375780633de04292146102675780634a042f0d146102835761012c565b806306fdde0314610131578063095ea7b31461014f5780631504f5cd1461017f57806318160ddd1461019b57806323b872dd146101b9575b600080fd5b61013961044a565b6040516101469190612989565b60405180910390f35b61016960048036038101906101649190612a44565b6104d8565b6040516101769190612a9f565b60405180910390f35b61019960048036038101906101949190612aba565b61063b565b005b6101a3610ace565b6040516101b09190612af6565b60405180910390f35b6101d360048036038101906101ce9190612b11565b610ad8565b6040516101e09190612a9f565b60405180910390f35b61020360048036038101906101fe9190612b64565b610f3f565b6040516102109190612a9f565b60405180910390f35b610221610fce565b60405161022e9190612bad565b60405180910390f35b610251600480360381019061024c9190612a44565b610fe1565b60405161025e9190612a9f565b60405180910390f35b610281600480360381019061027c9190612aba565b61124e565b005b61029d60048036038101906102989190612aba565b6114f1565b005b6102b960048036038101906102b49190612aba565b6117fa565b6040516102cb96959493929190612c4e565b60405180910390f35b6102ee60048036038101906102e99190612b64565b6118d3565b005b61030a60048036038101906103059190612b64565b611971565b6040516103179190612af6565b60405180910390f35b6103286119ba565b6040516103359190612989565b60405180910390f35b61035860048036038101906103539190612b11565b611a48565b6040516103659190612a9f565b60405180910390f35b61038860048036038101906103839190612a44565b611da6565b6040516103959190612a9f565b60405180910390f35b6103b860048036038101906103b39190612a44565b6120d8565b6040516103c59190612a9f565b60405180910390f35b6103e860048036038101906103e39190612aba565b61236a565b6040516103f59190612caf565b60405180910390f35b61041860048036038101906104139190612a44565b61239d565b005b610434600480360381019061042f9190612cca565b612766565b6040516104419190612af6565b60405180910390f35b6001805461045790612d39565b80601f016020809104026020016040519081016040528092919081815260200182805461048390612d39565b80156104d05780601f106104a5576101008083540402835291602001916104d0565b820191906000526020600020905b8154815290600101906020018083116104b357829003601f168201915b505050505081565b600082600073ffffffffffffffffffffffffffffffffffffffff168173ffffffffffffffffffffffffffffffffffffffff160361054a576040517f08c379a000000000000000000000000000000000000000000000000000000000815260040161054190612db6565b60405180910390fd5b82600760003373ffffffffffffffffffffffffffffffffffffffff1673ffffffffffffffffffffffffffffffffffffffff16815260200190815260200160002060008673ffffffffffffffffffffffffffffffffffffffff1673ffffffffffffffffffffffffffffffffffffffff168152602001908152602001600020819055508373ffffffffffffffffffffffffffffffffffffffff163373ffffffffffffffffffffffffffffffffffffffff167f8c5be1e5ebec7d5bd14f71427d1e84f3dd0314c0f7b2291e5b200ac8c7c3b925856040516106289190612af6565b60405180910390a3600191505092915050565b806000600a828154811061065257610651612dd6565b5b90600052602060002090600602016040518060c00160405290816000820160009054906101000a900473ffffffffffffffffffffffffffffffffffffffff1673ffffffffffffffffffffffffffffffffffffffff1673ffffffffffffffffffffffffffffffffffffffff1681526020016001820160009054906101000a900473ffffffffffffffffffffffffffffffffffffffff1673ffffffffffffffffffffffffffffffffffffffff1673ffffffffffffffffffffffffffffffffffffffff1681526020016002820160009054906101000a900473ffffffffffffffffffffffffffffffffffffffff1673ffffffffffffffffffffffffffffffffffffffff1673ffffffffffffffffffffffffffffffffffffffff1681526020016003820160009054906101000a900473ffffffffffffffffffffffffffffffffffffffff1673ffffffffffffffffffffffffffffffffffffffff1673ffffffffffffffffffffffffffffffffffffffff168152602001600482015481526020016005820160009054906101000a900460ff1660038111156107f2576107f1612bd7565b5b600381111561080457610803612bd7565b5b8152505090503373ffffffffffffffffffffffffffffffffffffffff16816000015173ffffffffffffffffffffffffffffffffffffffff161461084657600080fd5b6000600a848154811061085c5761085b612dd6565b5b90600052602060002090600602019050600160038111156108805761087f612bd7565b5b8160050160009054906101000a900460ff1660038111156108a4576108a3612bd7565b5b146108e4576040517f08c379a00000000000000000000000000000000000000000000000000000000081526004016108db90612e51565b60405180910390fd5b600060019050603281111561095f578160000160009054906101000a900473ffffffffffffffffffffffffffffffffffffffff168260020160006101000a81548173ffffffffffffffffffffffffffffffffffffffff021916908373ffffffffffffffffffffffffffffffffffffffff1602179055506109c7565b8160010160009054906101000a900473ffffffffffffffffffffffffffffffffffffffff168260020160006101000a81548173ffffffffffffffffffffffffffffffffffffffff021916908373ffffffffffffffffffffffffffffffffffffffff1602179055505b60028260050160006101000a81548160ff021916908360038111156109ef576109ee612bd7565b5b02179055507f3081685db10f400e474290616cda8de1f25e768a233420c4f18676bc7ee780eb8260000160009054906101000a900473ffffffffffffffffffffffffffffffffffffffff168360010160009054906101000a900473ffffffffffffffffffffffffffffffffffffffff168460030160009054906101000a900473ffffffffffffffffffffffffffffffffffffffff168560020160009054906101000a900473ffffffffffffffffffffffffffffffffffffffff168660040154604051610abf959493929190612e71565b60405180910390a15050505050565b6000600354905090565b600082600073ffffffffffffffffffffffffffffffffffffffff168173ffffffffffffffffffffffffffffffffffffffff1603610b4a576040517f08c379a0000000000000000000000000000000000000000000000000000000008152600401610b4190612db6565b60405180910390fd5b8483600660008373ffffffffffffffffffffffffffffffffffffffff1673ffffffffffffffffffffffffffffffffffffffff16815260200190815260200160002054811115610bce576040517f08c379a0000000000000000000000000000000000000000000000000000000008152600401610bc590612f10565b60405180910390fd5b863386600760008473ffffffffffffffffffffffffffffffffffffffff1673ffffffffffffffffffffffffffffffffffffffff16815260200190815260200160002060008373ffffffffffffffffffffffffffffffffffffffff1673ffffffffffffffffffffffffffffffffffffffff16815260200190815260200160002054811115610c90576040517f08c379a0000000000000000000000000000000000000000000000000000000008152600401610c8790612f7c565b60405180910390fd5b610ce288600660008d73ffffffffffffffffffffffffffffffffffffffff1673ffffffffffffffffffffffffffffffffffffffff168152602001908152602001600020546127ed90919063ffffffff16565b600660008c73ffffffffffffffffffffffffffffffffffffffff1673ffffffffffffffffffffffffffffffffffffffff16815260200190815260200160002081905550610d7788600660008c73ffffffffffffffffffffffffffffffffffffffff1673ffffffffffffffffffffffffffffffffffffffff1681526020019081526020016000205461283790919063ffffffff16565b600660008b73ffffffffffffffffffffffffffffffffffffffff1673ffffffffffffffffffffffffffffffffffffffff16815260200190815260200160002081905550610e4988600760008d73ffffffffffffffffffffffffffffffffffffffff1673ffffffffffffffffffffffffffffffffffffffff16815260200190815260200160002060003373ffffffffffffffffffffffffffffffffffffffff1673ffffffffffffffffffffffffffffffffffffffff168152602001908152602001600020546127ed90919063ffffffff16565b600760008c73ffffffffffffffffffffffffffffffffffffffff1673ffffffffffffffffffffffffffffffffffffffff16815260200190815260200160002060003373ffffffffffffffffffffffffffffffffffffffff1673ffffffffffffffffffffffffffffffffffffffff168152602001908152602001600020819055508873ffffffffffffffffffffffffffffffffffffffff168a73ffffffffffffffffffffffffffffffffffffffff167fddf252ad1be2c89b69c2b068fc378daa952ba7f163c4a11628f55a4df523b3ef8a604051610f269190612af6565b60405180910390a3600196505050505050509392505050565b6000806336372b0760e01b90508273ffffffffffffffffffffffffffffffffffffffff166301ffc9a7826040518263ffffffff1660e01b8152600401610f859190612fd7565b602060405180830381865afa158015610fa2573d6000803e3d6000fd5b505050506040513d601f19601f82011682018060405250810190610fc6919061301e565b915050919050565b600260009054906101000a900460ff1681565b600082600073ffffffffffffffffffffffffffffffffffffffff168173ffffffffffffffffffffffffffffffffffffffff1603611053576040517f08c379a000000000000000000000000000000000000000000000000000000000815260040161104a90612db6565b60405180910390fd5b6110e283600760003373ffffffffffffffffffffffffffffffffffffffff1673ffffffffffffffffffffffffffffffffffffffff16815260200190815260200160002060008773ffffffffffffffffffffffffffffffffffffffff1673ffffffffffffffffffffffffffffffffffffffff1681526020019081526020016000205461283790919063ffffffff16565b600760003373ffffffffffffffffffffffffffffffffffffffff1673ffffffffffffffffffffffffffffffffffffffff16815260200190815260200160002060008673ffffffffffffffffffffffffffffffffffffffff1673ffffffffffffffffffffffffffffffffffffffff168152602001908152602001600020819055508373ffffffffffffffffffffffffffffffffffffffff163373ffffffffffffffffffffffffffffffffffffffff167f8c5be1e5ebec7d5bd14f71427d1e84f3dd0314c0f7b2291e5b200ac8c7c3b925600760003373ffffffffffffffffffffffffffffffffffffffff1673ffffffffffffffffffffffffffffffffffffffff16815260200190815260200160002060008873ffffffffffffffffffffffffffffffffffffffff1673ffffffffffffffffffffffffffffffffffffffff1681526020019081526020016000205460405161123b9190612af6565b60405180910390a3600191505092915050565b6000600a828154811061126457611263612dd6565b5b906000526020600020906006020190506002600381111561128857611287612bd7565b5b8160050160009054906101000a900460ff1660038111156112ac576112ab612bd7565b5b146112ec576040517f08c379a00000000000000000000000000000000000000000000000000000000081526004016112e390613097565b60405180910390fd5b3373ffffffffffffffffffffffffffffffffffffffff168160020160009054906101000a900473ffffffffffffffffffffffffffffffffffffffff1673ffffffffffffffffffffffffffffffffffffffff161461137e576040517f08c379a000000000000000000000000000000000000000000000000000000000815260040161137590613103565b60405180910390fd5b60008160030160009054906101000a900473ffffffffffffffffffffffffffffffffffffffff1690508073ffffffffffffffffffffffffffffffffffffffff166323b872dd308460020160009054906101000a900473ffffffffffffffffffffffffffffffffffffffff16600286600401546113fa9190613152565b6040518463ffffffff1660e01b815260040161141893929190613194565b6020604051808303816000875af1158015611437573d6000803e3d6000fd5b505050506040513d601f19601f8201168201806040525081019061145b919061301e565b5060038260050160006101000a81548160ff0219169083600381111561148457611483612bd7565b5b02179055507f021a62efa5743cea486c2385ab5762d5a313fe562cde4e39cd91012442b32abe8260020160009054906101000a900473ffffffffffffffffffffffffffffffffffffffff168484600401546040516114e4939291906131cb565b60405180910390a1505050565b6000600a828154811061150757611506612dd6565b5b9060005260206000209060060201905060008160030160009054906101000a900473ffffffffffffffffffffffffffffffffffffffff16905081600401548173ffffffffffffffffffffffffffffffffffffffff166370a08231336040518263ffffffff1660e01b815260040161157e9190612caf565b602060405180830381865afa15801561159b573d6000803e3d6000fd5b505050506040513d601f19601f820116820180604052508101906115bf9190613217565b116115ff576040517f08c379a00000000000000000000000000000000000000000000000000000000081526004016115f690613290565b60405180910390fd5b6000600381111561161357611612612bd7565b5b8260050160009054906101000a900460ff16600381111561163757611636612bd7565b5b14611677576040517f08c379a000000000000000000000000000000000000000000000000000000000815260040161166e906132fc565b60405180910390fd5b8073ffffffffffffffffffffffffffffffffffffffff166323b872dd333085600401546040518463ffffffff1660e01b81526004016116b893929190613194565b6020604051808303816000875af11580156116d7573d6000803e3d6000fd5b505050506040513d601f19601f820116820180604052508101906116fb919061301e565b50338260010160006101000a81548173ffffffffffffffffffffffffffffffffffffffff021916908373ffffffffffffffffffffffffffffffffffffffff16021790555060018260050160006101000a81548160ff0219169083600381111561176757611766612bd7565b5b02179055507fa4d47a1252ebd1b968f79fa3c9a7f1b9c8e33ddf222d85c22d6ccdb8b81054648260000160009054906101000a900473ffffffffffffffffffffffffffffffffffffffff16338460030160009054906101000a900473ffffffffffffffffffffffffffffffffffffffff1685600401546040516117ed949392919061331c565b60405180910390a1505050565b600a818154811061180a57600080fd5b90600052602060002090600602016000915090508060000160009054906101000a900473ffffffffffffffffffffffffffffffffffffffff16908060010160009054906101000a900473ffffffffffffffffffffffffffffffffffffffff16908060020160009054906101000a900473ffffffffffffffffffffffffffffffffffffffff16908060030160009054906101000a900473ffffffffffffffffffffffffffffffffffffffff16908060040154908060050160009054906101000a900460ff16905086565b600460009054906101000a900473ffffffffffffffffffffffffffffffffffffffff1673ffffffffffffffffffffffffffffffffffffffff163373ffffffffffffffffffffffffffffffffffffffff161461192d57600080fd5b80600560006101000a81548173ffffffffffffffffffffffffffffffffffffffff021916908373ffffffffffffffffffffffffffffffffffffffff16021790555050565b6000600660008373ffffffffffffffffffffffffffffffffffffffff1673ffffffffffffffffffffffffffffffffffffffff168152602001908152602001600020549050919050565b600080546119c790612d39565b80601f01602080910402602001604051908101604052809291908181526020018280546119f390612d39565b8015611a405780601f10611a1557610100808354040283529160200191611a40565b820191906000526020600020905b815481529060010190602001808311611a2357829003601f168201915b505050505081565b600082600073ffffffffffffffffffffffffffffffffffffffff168173ffffffffffffffffffffffffffffffffffffffff1603611aba576040517f08c379a0000000000000000000000000000000000000000000000000000000008152600401611ab190612db6565b60405180910390fd5b84600073ffffffffffffffffffffffffffffffffffffffff168173ffffffffffffffffffffffffffffffffffffffff1603611b2a576040517f08c379a0000000000000000000000000000000000000000000000000000000008152600401611b2190612db6565b60405180910390fd5b8584600660008373ffffffffffffffffffffffffffffffffffffffff1673ffffffffffffffffffffffffffffffffffffffff16815260200190815260200160002054811115611bae576040517f08c379a0000000000000000000000000000000000000000000000000000000008152600401611ba590612f10565b60405180910390fd5b600560009054906101000a900473ffffffffffffffffffffffffffffffffffffffff1673ffffffffffffffffffffffffffffffffffffffff163373ffffffffffffffffffffffffffffffffffffffff1614611c0857600080fd5b611c5a86600660008b73ffffffffffffffffffffffffffffffffffffffff1673ffffffffffffffffffffffffffffffffffffffff168152602001908152602001600020546127ed90919063ffffffff16565b600660008a73ffffffffffffffffffffffffffffffffffffffff1673ffffffffffffffffffffffffffffffffffffffff16815260200190815260200160002081905550611cef86600660008a73ffffffffffffffffffffffffffffffffffffffff1673ffffffffffffffffffffffffffffffffffffffff1681526020019081526020016000205461283790919063ffffffff16565b600660008973ffffffffffffffffffffffffffffffffffffffff1673ffffffffffffffffffffffffffffffffffffffff168152602001908152602001600020819055508673ffffffffffffffffffffffffffffffffffffffff168873ffffffffffffffffffffffffffffffffffffffff167fddf252ad1be2c89b69c2b068fc378daa952ba7f163c4a11628f55a4df523b3ef88604051611d8f9190612af6565b60405180910390a360019450505050509392505050565b600082600073ffffffffffffffffffffffffffffffffffffffff168173ffffffffffffffffffffffffffffffffffffffff1603611e18576040517f08c379a0000000000000000000000000000000000000000000000000000000008152600401611e0f90612db6565b60405180910390fd5b338484600760008473ffffffffffffffffffffffffffffffffffffffff1673ffffffffffffffffffffffffffffffffffffffff16815260200190815260200160002060008373ffffffffffffffffffffffffffffffffffffffff1673ffffffffffffffffffffffffffffffffffffffff16815260200190815260200160002054811115611eda576040517f08c379a0000000000000000000000000000000000000000000000000000000008152600401611ed190612f7c565b60405180910390fd5b611f6986600760003373ffffffffffffffffffffffffffffffffffffffff1673ffffffffffffffffffffffffffffffffffffffff16815260200190815260200160002060008a73ffffffffffffffffffffffffffffffffffffffff1673ffffffffffffffffffffffffffffffffffffffff168152602001908152602001600020546127ed90919063ffffffff16565b600760003373ffffffffffffffffffffffffffffffffffffffff1673ffffffffffffffffffffffffffffffffffffffff16815260200190815260200160002060008973ffffffffffffffffffffffffffffffffffffffff1673ffffffffffffffffffffffffffffffffffffffff168152602001908152602001600020819055508673ffffffffffffffffffffffffffffffffffffffff163373ffffffffffffffffffffffffffffffffffffffff167f8c5be1e5ebec7d5bd14f71427d1e84f3dd0314c0f7b2291e5b200ac8c7c3b925600760003373ffffffffffffffffffffffffffffffffffffffff1673ffffffffffffffffffffffffffffffffffffffff16815260200190815260200160002060008b73ffffffffffffffffffffffffffffffffffffffff1673ffffffffffffffffffffffffffffffffffffffff168152602001908152602001600020546040516120c29190612af6565b60405180910390a3600194505050505092915050565b600082600073ffffffffffffffffffffffffffffffffffffffff168173ffffffffffffffffffffffffffffffffffffffff160361214a576040517f08c379a000000000000000000000000000000000000000000000000000000000815260040161214190612db6565b60405180910390fd5b3383600660008373ffffffffffffffffffffffffffffffffffffffff1673ffffffffffffffffffffffffffffffffffffffff168152602001908152602001600020548111156121ce576040517f08c379a00000000000000000000000000000000000000000000000000000000081526004016121c590612f10565b60405180910390fd5b61222085600660003373ffffffffffffffffffffffffffffffffffffffff1673ffffffffffffffffffffffffffffffffffffffff168152602001908152602001600020546127ed90919063ffffffff16565b600660003373ffffffffffffffffffffffffffffffffffffffff1673ffffffffffffffffffffffffffffffffffffffff168152602001908152602001600020819055506122b585600660008973ffffffffffffffffffffffffffffffffffffffff1673ffffffffffffffffffffffffffffffffffffffff1681526020019081526020016000205461283790919063ffffffff16565b600660008873ffffffffffffffffffffffffffffffffffffffff1673ffffffffffffffffffffffffffffffffffffffff168152602001908152602001600020819055508573ffffffffffffffffffffffffffffffffffffffff163373ffffffffffffffffffffffffffffffffffffffff167fddf252ad1be2c89b69c2b068fc378daa952ba7f163c4a11628f55a4df523b3ef876040516123559190612af6565b60405180910390a36001935050505092915050565b60096020528060005260406000206000915054906101000a900473ffffffffffffffffffffffffffffffffffffffff1681565b6000829050600082116123e5576040517f08c379a00000000000000000000000000000000000000000000000000000000081526004016123dc906133ad565b60405180910390fd5b818173ffffffffffffffffffffffffffffffffffffffff166370a08231336040518263ffffffff1660e01b815260040161241f9190612caf565b602060405180830381865afa15801561243c573d6000803e3d6000fd5b505050506040513d601f19601f820116820180604052508101906124609190613217565b116124a0576040517f08c379a000000000000000000000000000000000000000000000000000000000815260040161249790613290565b60405180910390fd5b600a6040518060c001604052803373ffffffffffffffffffffffffffffffffffffffff168152602001600073ffffffffffffffffffffffffffffffffffffffff168152602001600073ffffffffffffffffffffffffffffffffffffffff1681526020018573ffffffffffffffffffffffffffffffffffffffff1681526020018481526020016000600381111561253957612538612bd7565b5b815250908060018154018082558091505060019003906000526020600020906006020160009091909190915060008201518160000160006101000a81548173ffffffffffffffffffffffffffffffffffffffff021916908373ffffffffffffffffffffffffffffffffffffffff16021790555060208201518160010160006101000a81548173ffffffffffffffffffffffffffffffffffffffff021916908373ffffffffffffffffffffffffffffffffffffffff16021790555060408201518160020160006101000a81548173ffffffffffffffffffffffffffffffffffffffff021916908373ffffffffffffffffffffffffffffffffffffffff16021790555060608201518160030160006101000a81548173ffffffffffffffffffffffffffffffffffffffff021916908373ffffffffffffffffffffffffffffffffffffffff1602179055506080820151816004015560a08201518160050160006101000a81548160ff021916908360038111156126b6576126b5612bd7565b5b0217905550505060006001600a805490506126d191906133cd565b9050336009600083815260200190815260200160002060006101000a81548173ffffffffffffffffffffffffffffffffffffffff021916908373ffffffffffffffffffffffffffffffffffffffff1602179055507fe399d791d4211bd36bab27590719b9848183cd39fd3aeec8e1650c7ef1648b1633858560405161275893929190613194565b60405180910390a150505050565b6000600760008473ffffffffffffffffffffffffffffffffffffffff1673ffffffffffffffffffffffffffffffffffffffff16815260200190815260200160002060008373ffffffffffffffffffffffffffffffffffffffff1673ffffffffffffffffffffffffffffffffffffffff16815260200190815260200160002054905092915050565b600061282f83836040518060400160405280601e81526020017f536166654d6174683a207375627472616374696f6e206f766572666c6f770000815250612895565b905092915050565b60008082846128469190613401565b90508381101561288b576040517f08c379a000000000000000000000000000000000000000000000000000000000815260040161288290613481565b60405180910390fd5b8091505092915050565b60008383111582906128dd576040517f08c379a00000000000000000000000000000000000000000000000000000000081526004016128d49190612989565b60405180910390fd5b50600083856128ec91906133cd565b9050809150509392505050565b600081519050919050565b600082825260208201905092915050565b60005b83811015612933578082015181840152602081019050612918565b60008484015250505050565b6000601f19601f8301169050919050565b600061295b826128f9565b6129658185612904565b9350612975818560208601612915565b61297e8161293f565b840191505092915050565b600060208201905081810360008301526129a38184612950565b905092915050565b600080fd5b600073ffffffffffffffffffffffffffffffffffffffff82169050919050565b60006129db826129b0565b9050919050565b6129eb816129d0565b81146129f657600080fd5b50565b600081359050612a08816129e2565b92915050565b6000819050919050565b612a2181612a0e565b8114612a2c57600080fd5b50565b600081359050612a3e81612a18565b92915050565b60008060408385031215612a5b57612a5a6129ab565b5b6000612a69858286016129f9565b9250506020612a7a85828601612a2f565b9150509250929050565b60008115159050919050565b612a9981612a84565b82525050565b6000602082019050612ab46000830184612a90565b92915050565b600060208284031215612ad057612acf6129ab565b5b6000612ade84828501612a2f565b91505092915050565b612af081612a0e565b82525050565b6000602082019050612b0b6000830184612ae7565b92915050565b600080600060608486031215612b2a57612b296129ab565b5b6000612b38868287016129f9565b9350506020612b49868287016129f9565b9250506040612b5a86828701612a2f565b9150509250925092565b600060208284031215612b7a57612b796129ab565b5b6000612b88848285016129f9565b91505092915050565b600060ff82169050919050565b612ba781612b91565b82525050565b6000602082019050612bc26000830184612b9e565b92915050565b612bd1816129d0565b82525050565b7f4e487b7100000000000000000000000000000000000000000000000000000000600052602160045260246000fd5b60048110612c1757612c16612bd7565b5b50565b6000819050612c2882612c06565b919050565b6000612c3882612c1a565b9050919050565b612c4881612c2d565b82525050565b600060c082019050612c636000830189612bc8565b612c706020830188612bc8565b612c7d6040830187612bc8565b612c8a6060830186612bc8565b612c976080830185612ae7565b612ca460a0830184612c3f565b979650505050505050565b6000602082019050612cc46000830184612bc8565b92915050565b60008060408385031215612ce157612ce06129ab565b5b6000612cef858286016129f9565b9250506020612d00858286016129f9565b9150509250929050565b7f4e487b7100000000000000000000000000000000000000000000000000000000600052602260045260246000fd5b60006002820490506001821680612d5157607f821691505b602082108103612d6457612d63612d0a565b5b50919050565b7f416464726573732063616e6e6f74206265207a65726f00000000000000000000600082015250565b6000612da0601683612904565b9150612dab82612d6a565b602082019050919050565b60006020820190508181036000830152612dcf81612d93565b9050919050565b7f4e487b7100000000000000000000000000000000000000000000000000000000600052603260045260246000fd5b7f4e6f204f6e65206a6f696e656421000000000000000000000000000000000000600082015250565b6000612e3b600e83612904565b9150612e4682612e05565b602082019050919050565b60006020820190508181036000830152612e6a81612e2e565b9050919050565b600060a082019050612e866000830188612bc8565b612e936020830187612bc8565b612ea06040830186612bc8565b612ead6060830185612bc8565b612eba6080830184612ae7565b9695505050505050565b7f496e73756666696369656e742062616c616e6365000000000000000000000000600082015250565b6000612efa601483612904565b9150612f0582612ec4565b602082019050919050565b60006020820190508181036000830152612f2981612eed565b9050919050565b7f496e73756666696369656e7420616c6c6f77616e636500000000000000000000600082015250565b6000612f66601683612904565b9150612f7182612f30565b602082019050919050565b60006020820190508181036000830152612f9581612f59565b9050919050565b60007fffffffff0000000000000000000000000000000000000000000000000000000082169050919050565b612fd181612f9c565b82525050565b6000602082019050612fec6000830184612fc8565b92915050565b612ffb81612a84565b811461300657600080fd5b50565b60008151905061301881612ff2565b92915050565b600060208284031215613034576130336129ab565b5b600061304284828501613009565b91505092915050565b7f47616d65206e6f742066696e6973686564210000000000000000000000000000600082015250565b6000613081601283612904565b915061308c8261304b565b602082019050919050565b600060208201905081810360008301526130b081613074565b9050919050565b7f596f752061726520612074686965662100000000000000000000000000000000600082015250565b60006130ed601083612904565b91506130f8826130b7565b602082019050919050565b6000602082019050818103600083015261311c816130e0565b9050919050565b7f4e487b7100000000000000000000000000000000000000000000000000000000600052601160045260246000fd5b600061315d82612a0e565b915061316883612a0e565b925082820261317681612a0e565b9150828204841483151761318d5761318c613123565b5b5092915050565b60006060820190506131a96000830186612bc8565b6131b66020830185612bc8565b6131c36040830184612ae7565b949350505050565b60006060820190506131e06000830186612bc8565b6131ed6020830185612ae7565b6131fa6040830184612ae7565b949350505050565b60008151905061321181612a18565b92915050565b60006020828403121561322d5761322c6129ab565b5b600061323b84828501613202565b91505092915050565b7f4e6f7420656e6f7567682062616c616e63652100000000000000000000000000600082015250565b600061327a601383612904565b915061328582613244565b602082019050919050565b600060208201905081810360008301526132a98161326d565b9050919050565b7f43616e2774206a6f696e206e6f77210000000000000000000000000000000000600082015250565b60006132e6600f83612904565b91506132f1826132b0565b602082019050919050565b60006020820190508181036000830152613315816132d9565b9050919050565b60006080820190506133316000830187612bc8565b61333e6020830186612bc8565b61334b6040830185612bc8565b6133586060830184612ae7565b95945050505050565b7f47616d65206973206e6f74206672656500000000000000000000000000000000600082015250565b6000613397601083612904565b91506133a282613361565b602082019050919050565b600060208201905081810360008301526133c68161338a565b9050919050565b60006133d882612a0e565b91506133e383612a0e565b92508282039050818111156133fb576133fa613123565b5b92915050565b600061340c82612a0e565b915061341783612a0e565b925082820190508082111561342f5761342e613123565b5b92915050565b7f536166654d6174683a206164646974696f6e206f766572666c6f770000000000600082015250565b600061346b601b83612904565b915061347682613435565b602082019050919050565b6000602082019050818103600083015261349a8161345e565b905091905056fea2646970667358221220960de06ef9c49cf8e66eb7a63fe16418843ef8737c33e53a12b283447d2a3ac964736f6c63430008120033",
  "immutableReferences": {},
  "source": "// SPDX-License-Identifier: MIT\npragma solidity ^0.8.9;\n\nimport \"./struct.sol\";\nimport \"./token.sol\";\nimport \"./Helper.sol\";\n\ncontract Poker is PokerStruct, Token, Helper {\n    uint battleTotal;\n    mapping(uint => address) public battleToOwner;\n    Battle[] public battles;\n\n    // Event\n    event CreateBattle(address owner, address betToken, uint amount);\n    event JoinBattleEvent(\n        address owner,\n        address player,\n        address bet_token,\n        uint amount\n    );\n    event ExecuteBattle(\n        address owner,\n        address player,\n        address bet_token,\n        address winner,\n        uint amount\n    );\n    event ClaimBattleEvent(address claimer, uint battle, uint amount);\n\n    modifier checkERC20(address _tokenAddress) {\n        require(isERC20(_tokenAddress), \"Invalid token\");\n        _;\n    }\n\n    modifier battleOwner(uint battleid) {\n        Battle memory battle = battles[battleid];\n        require(battle.owner == msg.sender);\n        _;\n    }\n\n    // checkERC20(_token)\n\n    function createBattle(address _token, uint _amount) public {\n        Token token = Token(_token);\n\n        require(_amount > 0, \"Game is not free\");\n        require(token.balanceOf(msg.sender) > _amount, \"Not enough balance!\");\n\n        // token.transferFrom(msg.sender, address(this), _amount);\n\n        battles.push(\n            Battle(\n                msg.sender,\n                address(0),\n                address(0),\n                _token,\n                _amount,\n                BattleState.Wait\n            )\n        );\n        uint id = battles.length - 1;\n        battleToOwner[id] = msg.sender;\n\n        emit CreateBattle(msg.sender, _token, _amount);\n    }\n\n    function joinBattle(uint _battleId) public {\n        Battle storage battle = battles[_battleId];\n        Token token = Token(battle.bet_token);\n        require(\n            token.balanceOf(msg.sender) > battle.amount,\n            \"Not enough balance!\"\n        );\n        require(battle.state == BattleState.Wait, \"Can't join now!\");\n\n        token.transferFrom(msg.sender, address(this), battle.amount);\n\n        battle.player = msg.sender;\n        battle.state = BattleState.Playing;\n\n        emit JoinBattleEvent(\n            battle.owner,\n            msg.sender,\n            battle.bet_token,\n            battle.amount\n        );\n    }\n\n    function executeBattle(uint _battleId) public battleOwner(_battleId) {\n        Battle storage battle = battles[_battleId];\n        require(battle.state == BattleState.Playing, \"No One joined!\");\n\n        // uint rand = randFunc();\n        uint rand = 1;\n\n        if (rand > 50) {\n            battle.winner = battle.owner;\n        } else {\n            battle.winner = battle.player;\n        }\n\n        battle.state = BattleState.Finish;\n\n        emit ExecuteBattle(\n            battle.owner,\n            battle.player,\n            battle.bet_token,\n            battle.winner,\n            battle.amount\n        );\n    }\n\n    function claimBattle(uint _battleId) public {\n        Battle storage battle = battles[_battleId];\n        require(battle.state == BattleState.Finish, \"Game not finished!\");\n        require(battle.winner == msg.sender, \"You are a thief!\");\n\n        Token token = Token(battle.bet_token);\n        token.transferFrom(address(this), battle.winner, battle.amount * 2);\n\n        battle.state = BattleState.Claimed;\n\n        emit ClaimBattleEvent(battle.winner, _battleId, battle.amount);\n    }\n}\n",
  "sourcePath": "/Users/tranguyenduy/Documents/GitHub/solidity/fist-truffle/contracts/poker/index.sol",
  "compiler": {
    "name": "solc",
    "version": "0.8.18+commit.87f61d96.Emscripten.clang"
  },
  "schemaVersion": "3.4.12",
  "updatedAt": "2023-03-14T02:45:47.385Z",
  "devdoc": {
    "kind": "dev",
    "methods": {
      "allowance(address,address)": {
        "details": "Checks the amount of tokens that an owner allowed to a spender.",
        "params": {
          "owner": "address The address which owns the funds.",
          "spender": "address The address which will spend the funds."
        },
        "returns": {
          "_0": "A uint256 specifying the amount of tokens still available for the spender."
        }
      },
      "approve(address,uint256)": {
        "details": "Approves the passed address to spend the specified amount of tokens on behalf of msg.sender. Beware that changing an allowance with this method brings the risk that someone may use both the old and the new allowance by unfortunate transaction ordering. One possible solution to mitigate this race condition is to first reduce the spender's allowance to 0 and set the desired value afterwards: https://github.com/ethereum/EIPs/issues/20#issuecomment-263524729",
        "params": {
          "spender": "The address which will spend the funds.",
          "value": "The amount of tokens to be spent."
        }
      },
      "balanceOf(address)": {
        "details": "Gets the balance of the specified address.",
        "params": {
          "owner": "The address to query the the balance of."
        },
        "returns": {
          "_0": "An uint256 representing the amount owned by the passed address."
        }
      },
      "decreaseAllowance(address,uint256)": {
        "details": "Decreases the amount of tokens that an owner allowed to a spender. approve should be called when _allowance[spender] == 0. To decrement allowed value is better to use this function to avoid 2 calls (and wait until the first transaction is mined)",
        "params": {
          "spender": "The address which will spend the funds.",
          "subtractedValue": "The amount of tokens to decrease the allowance by."
        }
      },
      "increaseAllowance(address,uint256)": {
        "details": "Increases the amount of tokens that an owner allowed to a spender. approve should be called when _allowance[spender] == 0. To increment allowed value is better to use this function to avoid 2 calls (and wait until the first transaction is mined)",
        "params": {
          "addedValue": "The amount of tokens to increase the allowance by.",
          "spender": "The address which will spend the funds."
        }
      },
      "totalSupply()": {
        "details": "Gets total number of tokens in existence"
      },
      "transfer(address,uint256)": {
        "details": "Transfers token to the specified address",
        "params": {
          "to": "The address to transfer to.",
          "value": "The amount to be transferred."
        }
      },
      "transferFrom(address,address,uint256)": {
        "details": "Transfers tokens from one address to another",
        "params": {
          "from": "address The address which you want to send tokens from",
          "to": "address The address which you want to transfer to",
          "value": "uint256 the amount of tokens to be transferred"
        }
      }
    },
    "version": 1
  },
  "userdoc": {
    "kind": "user",
    "methods": {},
    "version": 1
  }
}