{
  "contractName": "Token",
  "abi": [
    {
      "inputs": [],
      "stateMutability": "nonpayable",
      "type": "constructor"
    },
    {
      "anonymous": false,
      "inputs": [
        {
          "indexed": true,
          "internalType": "address",
          "name": "owner",
          "type": "address"
        },
        {
          "indexed": true,
          "internalType": "address",
          "name": "spender",
          "type": "address"
        },
        {
          "indexed": false,
          "internalType": "uint256",
          "name": "value",
          "type": "uint256"
        }
      ],
      "name": "Approval",
      "type": "event"
    },
    {
      "anonymous": false,
      "inputs": [
        {
          "indexed": true,
          "internalType": "address",
          "name": "previousOwner",
          "type": "address"
        },
        {
          "indexed": true,
          "internalType": "address",
          "name": "newOwner",
          "type": "address"
        }
      ],
      "name": "OwnershipTransferred",
      "type": "event"
    },
    {
      "anonymous": false,
      "inputs": [
        {
          "indexed": true,
          "internalType": "address",
          "name": "from",
          "type": "address"
        },
        {
          "indexed": true,
          "internalType": "address",
          "name": "to",
          "type": "address"
        },
        {
          "indexed": false,
          "internalType": "uint256",
          "name": "value",
          "type": "uint256"
        }
      ],
      "name": "Transfer",
      "type": "event"
    },
    {
      "inputs": [],
      "name": "decimals",
      "outputs": [
        {
          "internalType": "uint8",
          "name": "",
          "type": "uint8"
        }
      ],
      "stateMutability": "view",
      "type": "function"
    },
    {
      "inputs": [],
      "name": "name",
      "outputs": [
        {
          "internalType": "string",
          "name": "",
          "type": "string"
        }
      ],
      "stateMutability": "view",
      "type": "function"
    },
    {
      "inputs": [],
      "name": "symbol",
      "outputs": [
        {
          "internalType": "string",
          "name": "",
          "type": "string"
        }
      ],
      "stateMutability": "view",
      "type": "function"
    },
    {
      "inputs": [
        {
          "internalType": "address",
          "name": "UserBehaviorContract",
          "type": "address"
        }
      ],
      "name": "setOnlyUserBehaviorContract",
      "outputs": [],
      "stateMutability": "nonpayable",
      "type": "function"
    },
    {
      "inputs": [
        {
          "internalType": "address",
          "name": "to",
          "type": "address"
        },
        {
          "internalType": "uint256",
          "name": "value",
          "type": "uint256"
        }
      ],
      "name": "transfer",
      "outputs": [
        {
          "internalType": "bool",
          "name": "",
          "type": "bool"
        }
      ],
      "stateMutability": "nonpayable",
      "type": "function"
    },
    {
      "inputs": [
        {
          "internalType": "address",
          "name": "spender",
          "type": "address"
        },
        {
          "internalType": "address",
          "name": "to",
          "type": "address"
        },
        {
          "internalType": "uint256",
          "name": "value",
          "type": "uint256"
        }
      ],
      "name": "TransferFromTo",
      "outputs": [
        {
          "internalType": "bool",
          "name": "",
          "type": "bool"
        }
      ],
      "stateMutability": "nonpayable",
      "type": "function"
    },
    {
      "inputs": [
        {
          "internalType": "address",
          "name": "from",
          "type": "address"
        },
        {
          "internalType": "address",
          "name": "to",
          "type": "address"
        },
        {
          "internalType": "uint256",
          "name": "value",
          "type": "uint256"
        }
      ],
      "name": "transferFrom",
      "outputs": [
        {
          "internalType": "bool",
          "name": "",
          "type": "bool"
        }
      ],
      "stateMutability": "nonpayable",
      "type": "function"
    },
    {
      "inputs": [
        {
          "internalType": "address",
          "name": "spender",
          "type": "address"
        },
        {
          "internalType": "uint256",
          "name": "value",
          "type": "uint256"
        }
      ],
      "name": "approve",
      "outputs": [
        {
          "internalType": "bool",
          "name": "",
          "type": "bool"
        }
      ],
      "stateMutability": "nonpayable",
      "type": "function"
    },
    {
      "inputs": [
        {
          "internalType": "address",
          "name": "spender",
          "type": "address"
        },
        {
          "internalType": "uint256",
          "name": "addedValue",
          "type": "uint256"
        }
      ],
      "name": "increaseAllowance",
      "outputs": [
        {
          "internalType": "bool",
          "name": "",
          "type": "bool"
        }
      ],
      "stateMutability": "nonpayable",
      "type": "function"
    },
    {
      "inputs": [
        {
          "internalType": "address",
          "name": "spender",
          "type": "address"
        },
        {
          "internalType": "uint256",
          "name": "subtractedValue",
          "type": "uint256"
        }
      ],
      "name": "decreaseAllowance",
      "outputs": [
        {
          "internalType": "bool",
          "name": "",
          "type": "bool"
        }
      ],
      "stateMutability": "nonpayable",
      "type": "function"
    },
    {
      "inputs": [],
      "name": "totalSupply",
      "outputs": [
        {
          "internalType": "uint256",
          "name": "",
          "type": "uint256"
        }
      ],
      "stateMutability": "view",
      "type": "function"
    },
    {
      "inputs": [
        {
          "internalType": "address",
          "name": "owner",
          "type": "address"
        }
      ],
      "name": "balanceOf",
      "outputs": [
        {
          "internalType": "uint256",
          "name": "",
          "type": "uint256"
        }
      ],
      "stateMutability": "view",
      "type": "function"
    },
    {
      "inputs": [
        {
          "internalType": "address",
          "name": "owner",
          "type": "address"
        },
        {
          "internalType": "address",
          "name": "spender",
          "type": "address"
        }
      ],
      "name": "allowance",
      "outputs": [
        {
          "internalType": "uint256",
          "name": "",
          "type": "uint256"
        }
      ],
      "stateMutability": "view",
      "type": "function"
    }
  ],
  "bytecode": "0x60806040523480156200001157600080fd5b506040518060400160405280600381526020017f48414b000000000000000000000000000000000000000000000000000000000081525060009081620000589190620004e1565b506040518060400160405280601281526020017f446976657267656e7420496e2048656172740000000000000000000000000000815250600190816200009f9190620004e1565b506012600260006101000a81548160ff021916908360ff160217905550600260009054906101000a900460ff1660ff16600a620000dd91906200074b565b620f4240620000ed91906200079c565b600381905550600354600660003373ffffffffffffffffffffffffffffffffffffffff1673ffffffffffffffffffffffffffffffffffffffff1681526020019081526020016000208190555033600460006101000a81548173ffffffffffffffffffffffffffffffffffffffff021916908373ffffffffffffffffffffffffffffffffffffffff160217905550600460009054906101000a900473ffffffffffffffffffffffffffffffffffffffff1673ffffffffffffffffffffffffffffffffffffffff16600073ffffffffffffffffffffffffffffffffffffffff167f8be0079c531659141344cd1fd0a4f28419497f9722a3daafe3b4186f6b6457e060405160405180910390a33373ffffffffffffffffffffffffffffffffffffffff16600073ffffffffffffffffffffffffffffffffffffffff167fddf252ad1be2c89b69c2b068fc378daa952ba7f163c4a11628f55a4df523b3ef600354604051620002599190620007f8565b60405180910390a362000815565b600081519050919050565b7f4e487b7100000000000000000000000000000000000000000000000000000000600052604160045260246000fd5b7f4e487b7100000000000000000000000000000000000000000000000000000000600052602260045260246000fd5b60006002820490506001821680620002e957607f821691505b602082108103620002ff57620002fe620002a1565b5b50919050565b60008190508160005260206000209050919050565b60006020601f8301049050919050565b600082821b905092915050565b600060088302620003697fffffffffffffffffffffffffffffffffffffffffffffffffffffffffffffffff826200032a565b6200037586836200032a565b95508019841693508086168417925050509392505050565b6000819050919050565b6000819050919050565b6000620003c2620003bc620003b6846200038d565b62000397565b6200038d565b9050919050565b6000819050919050565b620003de83620003a1565b620003f6620003ed82620003c9565b84845462000337565b825550505050565b600090565b6200040d620003fe565b6200041a818484620003d3565b505050565b5b8181101562000442576200043660008262000403565b60018101905062000420565b5050565b601f82111562000491576200045b8162000305565b62000466846200031a565b8101602085101562000476578190505b6200048e62000485856200031a565b8301826200041f565b50505b505050565b600082821c905092915050565b6000620004b66000198460080262000496565b1980831691505092915050565b6000620004d18383620004a3565b9150826002028217905092915050565b620004ec8262000267565b67ffffffffffffffff81111562000508576200050762000272565b5b620005148254620002d0565b6200052182828562000446565b600060209050601f83116001811462000559576000841562000544578287015190505b620005508582620004c3565b865550620005c0565b601f198416620005698662000305565b60005b8281101562000593578489015182556001820191506020850194506020810190506200056c565b86831015620005b35784890151620005af601f891682620004a3565b8355505b6001600288020188555050505b505050505050565b7f4e487b7100000000000000000000000000000000000000000000000000000000600052601160045260246000fd5b60008160011c9050919050565b6000808291508390505b600185111562000656578086048111156200062e576200062d620005c8565b5b60018516156200063e5780820291505b80810290506200064e85620005f7565b94506200060e565b94509492505050565b60008262000671576001905062000744565b8162000681576000905062000744565b81600181146200069a5760028114620006a557620006db565b600191505062000744565b60ff841115620006ba57620006b9620005c8565b5b8360020a915084821115620006d457620006d3620005c8565b5b5062000744565b5060208310610133831016604e8410600b8410161715620007155782820a9050838111156200070f576200070e620005c8565b5b62000744565b62000724848484600162000604565b925090508184048111156200073e576200073d620005c8565b5b81810290505b9392505050565b600062000758826200038d565b915062000765836200038d565b9250620007947fffffffffffffffffffffffffffffffffffffffffffffffffffffffffffffffff84846200065f565b905092915050565b6000620007a9826200038d565b9150620007b6836200038d565b9250828202620007c6816200038d565b91508282048414831517620007e057620007df620005c8565b5b5092915050565b620007f2816200038d565b82525050565b60006020820190506200080f6000830184620007e7565b92915050565b611db380620008256000396000f3fe608060405234801561001057600080fd5b50600436106100cf5760003560e01c806362c0cf8d1161008c5780639e38ddae116100665780639e38ddae14610228578063a457c2d714610258578063a9059cbb14610288578063dd62ed3e146102b8576100cf565b806362c0cf8d146101be57806370a08231146101da57806395d89b411461020a576100cf565b806306fdde03146100d4578063095ea7b3146100f257806318160ddd1461012257806323b872dd14610140578063313ce56714610170578063395093511461018e575b600080fd5b6100dc6102e8565b6040516100e99190611884565b60405180910390f35b61010c6004803603810190610107919061193f565b610376565b604051610119919061199a565b60405180910390f35b61012a6104d9565b60405161013791906119c4565b60405180910390f35b61015a600480360381019061015591906119df565b6104e3565b604051610167919061199a565b60405180910390f35b61017861094a565b6040516101859190611a4e565b60405180910390f35b6101a860048036038101906101a3919061193f565b61095d565b6040516101b5919061199a565b60405180910390f35b6101d860048036038101906101d39190611a69565b610bca565b005b6101f460048036038101906101ef9190611a69565b610c68565b60405161020191906119c4565b60405180910390f35b610212610cb1565b60405161021f9190611884565b60405180910390f35b610242600480360381019061023d91906119df565b610d3f565b60405161024f919061199a565b60405180910390f35b610272600480360381019061026d919061193f565b61109d565b60405161027f919061199a565b60405180910390f35b6102a2600480360381019061029d919061193f565b6113cf565b6040516102af919061199a565b60405180910390f35b6102d260048036038101906102cd9190611a96565b611661565b6040516102df91906119c4565b60405180910390f35b600180546102f590611b05565b80601f016020809104026020016040519081016040528092919081815260200182805461032190611b05565b801561036e5780601f106103435761010080835404028352916020019161036e565b820191906000526020600020905b81548152906001019060200180831161035157829003601f168201915b505050505081565b600082600073ffffffffffffffffffffffffffffffffffffffff168173ffffffffffffffffffffffffffffffffffffffff16036103e8576040517f08c379a00000000000000000000000000000000000000000000000000000000081526004016103df90611b82565b60405180910390fd5b82600760003373ffffffffffffffffffffffffffffffffffffffff1673ffffffffffffffffffffffffffffffffffffffff16815260200190815260200160002060008673ffffffffffffffffffffffffffffffffffffffff1673ffffffffffffffffffffffffffffffffffffffff168152602001908152602001600020819055508373ffffffffffffffffffffffffffffffffffffffff163373ffffffffffffffffffffffffffffffffffffffff167f8c5be1e5ebec7d5bd14f71427d1e84f3dd0314c0f7b2291e5b200ac8c7c3b925856040516104c691906119c4565b60405180910390a3600191505092915050565b6000600354905090565b600082600073ffffffffffffffffffffffffffffffffffffffff168173ffffffffffffffffffffffffffffffffffffffff1603610555576040517f08c379a000000000000000000000000000000000000000000000000000000000815260040161054c90611b82565b60405180910390fd5b8483600660008373ffffffffffffffffffffffffffffffffffffffff1673ffffffffffffffffffffffffffffffffffffffff168152602001908152602001600020548111156105d9576040517f08c379a00000000000000000000000000000000000000000000000000000000081526004016105d090611bee565b60405180910390fd5b863386600760008473ffffffffffffffffffffffffffffffffffffffff1673ffffffffffffffffffffffffffffffffffffffff16815260200190815260200160002060008373ffffffffffffffffffffffffffffffffffffffff1673ffffffffffffffffffffffffffffffffffffffff1681526020019081526020016000205481111561069b576040517f08c379a000000000000000000000000000000000000000000000000000000000815260040161069290611c5a565b60405180910390fd5b6106ed88600660008d73ffffffffffffffffffffffffffffffffffffffff1673ffffffffffffffffffffffffffffffffffffffff168152602001908152602001600020546116e890919063ffffffff16565b600660008c73ffffffffffffffffffffffffffffffffffffffff1673ffffffffffffffffffffffffffffffffffffffff1681526020019081526020016000208190555061078288600660008c73ffffffffffffffffffffffffffffffffffffffff1673ffffffffffffffffffffffffffffffffffffffff1681526020019081526020016000205461173290919063ffffffff16565b600660008b73ffffffffffffffffffffffffffffffffffffffff1673ffffffffffffffffffffffffffffffffffffffff1681526020019081526020016000208190555061085488600760008d73ffffffffffffffffffffffffffffffffffffffff1673ffffffffffffffffffffffffffffffffffffffff16815260200190815260200160002060003373ffffffffffffffffffffffffffffffffffffffff1673ffffffffffffffffffffffffffffffffffffffff168152602001908152602001600020546116e890919063ffffffff16565b600760008c73ffffffffffffffffffffffffffffffffffffffff1673ffffffffffffffffffffffffffffffffffffffff16815260200190815260200160002060003373ffffffffffffffffffffffffffffffffffffffff1673ffffffffffffffffffffffffffffffffffffffff168152602001908152602001600020819055508873ffffffffffffffffffffffffffffffffffffffff168a73ffffffffffffffffffffffffffffffffffffffff167fddf252ad1be2c89b69c2b068fc378daa952ba7f163c4a11628f55a4df523b3ef8a60405161093191906119c4565b60405180910390a3600196505050505050509392505050565b600260009054906101000a900460ff1681565b600082600073ffffffffffffffffffffffffffffffffffffffff168173ffffffffffffffffffffffffffffffffffffffff16036109cf576040517f08c379a00000000000000000000000000000000000000000000000000000000081526004016109c690611b82565b60405180910390fd5b610a5e83600760003373ffffffffffffffffffffffffffffffffffffffff1673ffffffffffffffffffffffffffffffffffffffff16815260200190815260200160002060008773ffffffffffffffffffffffffffffffffffffffff1673ffffffffffffffffffffffffffffffffffffffff1681526020019081526020016000205461173290919063ffffffff16565b600760003373ffffffffffffffffffffffffffffffffffffffff1673ffffffffffffffffffffffffffffffffffffffff16815260200190815260200160002060008673ffffffffffffffffffffffffffffffffffffffff1673ffffffffffffffffffffffffffffffffffffffff168152602001908152602001600020819055508373ffffffffffffffffffffffffffffffffffffffff163373ffffffffffffffffffffffffffffffffffffffff167f8c5be1e5ebec7d5bd14f71427d1e84f3dd0314c0f7b2291e5b200ac8c7c3b925600760003373ffffffffffffffffffffffffffffffffffffffff1673ffffffffffffffffffffffffffffffffffffffff16815260200190815260200160002060008873ffffffffffffffffffffffffffffffffffffffff1673ffffffffffffffffffffffffffffffffffffffff16815260200190815260200160002054604051610bb791906119c4565b60405180910390a3600191505092915050565b600460009054906101000a900473ffffffffffffffffffffffffffffffffffffffff1673ffffffffffffffffffffffffffffffffffffffff163373ffffffffffffffffffffffffffffffffffffffff1614610c2457600080fd5b80600560006101000a81548173ffffffffffffffffffffffffffffffffffffffff021916908373ffffffffffffffffffffffffffffffffffffffff16021790555050565b6000600660008373ffffffffffffffffffffffffffffffffffffffff1673ffffffffffffffffffffffffffffffffffffffff168152602001908152602001600020549050919050565b60008054610cbe90611b05565b80601f0160208091040260200160405190810160405280929190818152602001828054610cea90611b05565b8015610d375780601f10610d0c57610100808354040283529160200191610d37565b820191906000526020600020905b815481529060010190602001808311610d1a57829003601f168201915b505050505081565b600082600073ffffffffffffffffffffffffffffffffffffffff168173ffffffffffffffffffffffffffffffffffffffff1603610db1576040517f08c379a0000000000000000000000000000000000000000000000000000000008152600401610da890611b82565b60405180910390fd5b84600073ffffffffffffffffffffffffffffffffffffffff168173ffffffffffffffffffffffffffffffffffffffff1603610e21576040517f08c379a0000000000000000000000000000000000000000000000000000000008152600401610e1890611b82565b60405180910390fd5b8584600660008373ffffffffffffffffffffffffffffffffffffffff1673ffffffffffffffffffffffffffffffffffffffff16815260200190815260200160002054811115610ea5576040517f08c379a0000000000000000000000000000000000000000000000000000000008152600401610e9c90611bee565b60405180910390fd5b600560009054906101000a900473ffffffffffffffffffffffffffffffffffffffff1673ffffffffffffffffffffffffffffffffffffffff163373ffffffffffffffffffffffffffffffffffffffff1614610eff57600080fd5b610f5186600660008b73ffffffffffffffffffffffffffffffffffffffff1673ffffffffffffffffffffffffffffffffffffffff168152602001908152602001600020546116e890919063ffffffff16565b600660008a73ffffffffffffffffffffffffffffffffffffffff1673ffffffffffffffffffffffffffffffffffffffff16815260200190815260200160002081905550610fe686600660008a73ffffffffffffffffffffffffffffffffffffffff1673ffffffffffffffffffffffffffffffffffffffff1681526020019081526020016000205461173290919063ffffffff16565b600660008973ffffffffffffffffffffffffffffffffffffffff1673ffffffffffffffffffffffffffffffffffffffff168152602001908152602001600020819055508673ffffffffffffffffffffffffffffffffffffffff168873ffffffffffffffffffffffffffffffffffffffff167fddf252ad1be2c89b69c2b068fc378daa952ba7f163c4a11628f55a4df523b3ef8860405161108691906119c4565b60405180910390a360019450505050509392505050565b600082600073ffffffffffffffffffffffffffffffffffffffff168173ffffffffffffffffffffffffffffffffffffffff160361110f576040517f08c379a000000000000000000000000000000000000000000000000000000000815260040161110690611b82565b60405180910390fd5b338484600760008473ffffffffffffffffffffffffffffffffffffffff1673ffffffffffffffffffffffffffffffffffffffff16815260200190815260200160002060008373ffffffffffffffffffffffffffffffffffffffff1673ffffffffffffffffffffffffffffffffffffffff168152602001908152602001600020548111156111d1576040517f08c379a00000000000000000000000000000000000000000000000000000000081526004016111c890611c5a565b60405180910390fd5b61126086600760003373ffffffffffffffffffffffffffffffffffffffff1673ffffffffffffffffffffffffffffffffffffffff16815260200190815260200160002060008a73ffffffffffffffffffffffffffffffffffffffff1673ffffffffffffffffffffffffffffffffffffffff168152602001908152602001600020546116e890919063ffffffff16565b600760003373ffffffffffffffffffffffffffffffffffffffff1673ffffffffffffffffffffffffffffffffffffffff16815260200190815260200160002060008973ffffffffffffffffffffffffffffffffffffffff1673ffffffffffffffffffffffffffffffffffffffff168152602001908152602001600020819055508673ffffffffffffffffffffffffffffffffffffffff163373ffffffffffffffffffffffffffffffffffffffff167f8c5be1e5ebec7d5bd14f71427d1e84f3dd0314c0f7b2291e5b200ac8c7c3b925600760003373ffffffffffffffffffffffffffffffffffffffff1673ffffffffffffffffffffffffffffffffffffffff16815260200190815260200160002060008b73ffffffffffffffffffffffffffffffffffffffff1673ffffffffffffffffffffffffffffffffffffffff168152602001908152602001600020546040516113b991906119c4565b60405180910390a3600194505050505092915050565b600082600073ffffffffffffffffffffffffffffffffffffffff168173ffffffffffffffffffffffffffffffffffffffff1603611441576040517f08c379a000000000000000000000000000000000000000000000000000000000815260040161143890611b82565b60405180910390fd5b3383600660008373ffffffffffffffffffffffffffffffffffffffff1673ffffffffffffffffffffffffffffffffffffffff168152602001908152602001600020548111156114c5576040517f08c379a00000000000000000000000000000000000000000000000000000000081526004016114bc90611bee565b60405180910390fd5b61151785600660003373ffffffffffffffffffffffffffffffffffffffff1673ffffffffffffffffffffffffffffffffffffffff168152602001908152602001600020546116e890919063ffffffff16565b600660003373ffffffffffffffffffffffffffffffffffffffff1673ffffffffffffffffffffffffffffffffffffffff168152602001908152602001600020819055506115ac85600660008973ffffffffffffffffffffffffffffffffffffffff1673ffffffffffffffffffffffffffffffffffffffff1681526020019081526020016000205461173290919063ffffffff16565b600660008873ffffffffffffffffffffffffffffffffffffffff1673ffffffffffffffffffffffffffffffffffffffff168152602001908152602001600020819055508573ffffffffffffffffffffffffffffffffffffffff163373ffffffffffffffffffffffffffffffffffffffff167fddf252ad1be2c89b69c2b068fc378daa952ba7f163c4a11628f55a4df523b3ef8760405161164c91906119c4565b60405180910390a36001935050505092915050565b6000600760008473ffffffffffffffffffffffffffffffffffffffff1673ffffffffffffffffffffffffffffffffffffffff16815260200190815260200160002060008373ffffffffffffffffffffffffffffffffffffffff1673ffffffffffffffffffffffffffffffffffffffff16815260200190815260200160002054905092915050565b600061172a83836040518060400160405280601e81526020017f536166654d6174683a207375627472616374696f6e206f766572666c6f770000815250611790565b905092915050565b60008082846117419190611ca9565b905083811015611786576040517f08c379a000000000000000000000000000000000000000000000000000000000815260040161177d90611d29565b60405180910390fd5b8091505092915050565b60008383111582906117d8576040517f08c379a00000000000000000000000000000000000000000000000000000000081526004016117cf9190611884565b60405180910390fd5b50600083856117e79190611d49565b9050809150509392505050565b600081519050919050565b600082825260208201905092915050565b60005b8381101561182e578082015181840152602081019050611813565b60008484015250505050565b6000601f19601f8301169050919050565b6000611856826117f4565b61186081856117ff565b9350611870818560208601611810565b6118798161183a565b840191505092915050565b6000602082019050818103600083015261189e818461184b565b905092915050565b600080fd5b600073ffffffffffffffffffffffffffffffffffffffff82169050919050565b60006118d6826118ab565b9050919050565b6118e6816118cb565b81146118f157600080fd5b50565b600081359050611903816118dd565b92915050565b6000819050919050565b61191c81611909565b811461192757600080fd5b50565b60008135905061193981611913565b92915050565b60008060408385031215611956576119556118a6565b5b6000611964858286016118f4565b92505060206119758582860161192a565b9150509250929050565b60008115159050919050565b6119948161197f565b82525050565b60006020820190506119af600083018461198b565b92915050565b6119be81611909565b82525050565b60006020820190506119d960008301846119b5565b92915050565b6000806000606084860312156119f8576119f76118a6565b5b6000611a06868287016118f4565b9350506020611a17868287016118f4565b9250506040611a288682870161192a565b9150509250925092565b600060ff82169050919050565b611a4881611a32565b82525050565b6000602082019050611a636000830184611a3f565b92915050565b600060208284031215611a7f57611a7e6118a6565b5b6000611a8d848285016118f4565b91505092915050565b60008060408385031215611aad57611aac6118a6565b5b6000611abb858286016118f4565b9250506020611acc858286016118f4565b9150509250929050565b7f4e487b7100000000000000000000000000000000000000000000000000000000600052602260045260246000fd5b60006002820490506001821680611b1d57607f821691505b602082108103611b3057611b2f611ad6565b5b50919050565b7f416464726573732063616e6e6f74206265207a65726f00000000000000000000600082015250565b6000611b6c6016836117ff565b9150611b7782611b36565b602082019050919050565b60006020820190508181036000830152611b9b81611b5f565b9050919050565b7f496e73756666696369656e742062616c616e6365000000000000000000000000600082015250565b6000611bd86014836117ff565b9150611be382611ba2565b602082019050919050565b60006020820190508181036000830152611c0781611bcb565b9050919050565b7f496e73756666696369656e7420616c6c6f77616e636500000000000000000000600082015250565b6000611c446016836117ff565b9150611c4f82611c0e565b602082019050919050565b60006020820190508181036000830152611c7381611c37565b9050919050565b7f4e487b7100000000000000000000000000000000000000000000000000000000600052601160045260246000fd5b6000611cb482611909565b9150611cbf83611909565b9250828201905080821115611cd757611cd6611c7a565b5b92915050565b7f536166654d6174683a206164646974696f6e206f766572666c6f770000000000600082015250565b6000611d13601b836117ff565b9150611d1e82611cdd565b602082019050919050565b60006020820190508181036000830152611d4281611d06565b9050919050565b6000611d5482611909565b9150611d5f83611909565b9250828203905081811115611d7757611d76611c7a565b5b9291505056fea2646970667358221220ef6b1f975e12ed925f3bf68b25aa6a6db8fadbf8ff8319467c2a8c7acd24ef3264736f6c63430008120033",
  "immutableReferences": {},
  "source": "// SPDX-License-Identifier: MIT\npragma solidity ^0.8.9;\n\nimport \"./ERC20.sol\";\nimport \"./SafeMath.sol\";\n\n/**\n * @title Standard ERC20 token\n *\n * @dev Implementation of the basic standard token.\n * @dev Based on https://github.com/OpenZeppelin/zeppelin-solidity\n */\ncontract Token is ERC20 {\n    using SafeMath for uint256;\n\n    string public symbol;\n    string public name;\n    uint8 public decimals;\n    uint256 internal _totalSupply;\n\n    address _owner;\n    address _UserBehaviorContract;\n\n    event OwnershipTransferred(\n        address indexed previousOwner,\n        address indexed newOwner\n    );\n\n    mapping(address => uint256) internal _balanceOf;\n    mapping(address => mapping(address => uint256)) internal _allowance;\n\n    constructor() {\n        symbol = \"HAK\";\n        name = \"Divergent In Heart\";\n        decimals = 18;\n        _totalSupply = 1000000 * 10 ** uint(decimals);\n        _balanceOf[msg.sender] = _totalSupply;\n        _owner = msg.sender;\n        emit OwnershipTransferred(address(0), _owner);\n        emit Transfer(address(0), msg.sender, _totalSupply);\n    }\n\n    modifier onlyOwner() {\n        require(msg.sender == _owner);\n        _;\n    }\n    modifier onlyUserBehaviorContract() {\n        require(msg.sender == _UserBehaviorContract);\n        _;\n    }\n\n    modifier onlyValidAddress(address addr) {\n        require(addr != address(0), \"Address cannot be zero\");\n        _;\n    }\n\n    modifier onlySufficientBalance(address from, uint256 value) {\n        require(value <= _balanceOf[from], \"Insufficient balance\");\n        _;\n    }\n\n    modifier onlySufficientAllowance(\n        address owner,\n        address spender,\n        uint256 value\n    ) {\n        require(value <= _allowance[owner][spender], \"Insufficient allowance\");\n        _;\n    }\n\n    function setOnlyUserBehaviorContract(\n        address UserBehaviorContract\n    ) public onlyOwner {\n        _UserBehaviorContract = UserBehaviorContract;\n    }\n\n    /**\n     * @dev Transfers token to the specified address\n     * @param to The address to transfer to.\n     * @param value The amount to be transferred.\n     */\n    function transfer(\n        address to,\n        uint256 value\n    )\n        public\n        override\n        onlyValidAddress(to)\n        onlySufficientBalance(msg.sender, value)\n        returns (bool)\n    {\n        _balanceOf[msg.sender] = _balanceOf[msg.sender].sub(value);\n        _balanceOf[to] = _balanceOf[to].add(value);\n\n        emit Transfer(msg.sender, to, value);\n\n        return true;\n    }\n\n    function TransferFromTo(\n        address spender,\n        address to,\n        uint256 value\n    )\n        public\n        override\n        onlyValidAddress(to)\n        onlyValidAddress(spender)\n        onlySufficientBalance(spender, value)\n        onlyUserBehaviorContract\n        returns (bool)\n    {\n        _balanceOf[spender] = _balanceOf[spender].sub(value);\n        _balanceOf[to] = _balanceOf[to].add(value);\n\n        emit Transfer(spender, to, value);\n\n        return true;\n    }\n\n    /**\n     * @dev Transfers tokens from one address to another\n     * @param from address The address which you want to send tokens from\n     * @param to address The address which you want to transfer to\n     * @param value uint256 the amount of tokens to be transferred\n     */\n    function transferFrom(\n        address from,\n        address to,\n        uint256 value\n    )\n        public\n        override\n        onlyValidAddress(to)\n        onlySufficientBalance(from, value)\n        onlySufficientAllowance(from, msg.sender, value)\n        returns (bool)\n    {\n        _balanceOf[from] = _balanceOf[from].sub(value);\n        _balanceOf[to] = _balanceOf[to].add(value);\n        _allowance[from][msg.sender] = _allowance[from][msg.sender].sub(value);\n\n        emit Transfer(from, to, value);\n\n        return true;\n    }\n\n    /**\n     * @dev Approves the passed address to spend the specified amount of tokens on behalf of msg.sender.\n     *\n     * Beware that changing an allowance with this method brings the risk that someone may use both the old\n     * and the new allowance by unfortunate transaction ordering. One possible solution to mitigate this\n     * race condition is to first reduce the spender's allowance to 0 and set the desired value afterwards:\n     * https://github.com/ethereum/EIPs/issues/20#issuecomment-263524729\n     * @param spender The address which will spend the funds.\n     * @param value The amount of tokens to be spent.\n     */\n    function approve(\n        address spender,\n        uint256 value\n    ) public override onlyValidAddress(spender) returns (bool) {\n        _allowance[msg.sender][spender] = value;\n\n        emit Approval(msg.sender, spender, value);\n\n        return true;\n    }\n\n    /**\n     * @dev Increases the amount of tokens that an owner allowed to a spender.\n     *\n     * approve should be called when _allowance[spender] == 0. To increment\n     * allowed value is better to use this function to avoid 2 calls (and wait until\n     * the first transaction is mined)\n     * @param spender The address which will spend the funds.\n     * @param addedValue The amount of tokens to increase the allowance by.\n     */\n    function increaseAllowance(\n        address spender,\n        uint256 addedValue\n    ) public onlyValidAddress(spender) returns (bool) {\n        _allowance[msg.sender][spender] = _allowance[msg.sender][spender].add(\n            addedValue\n        );\n\n        emit Approval(msg.sender, spender, _allowance[msg.sender][spender]);\n\n        return true;\n    }\n\n    /**\n     * @dev Decreases the amount of tokens that an owner allowed to a spender.\n     *\n     * approve should be called when _allowance[spender] == 0. To decrement\n     * allowed value is better to use this function to avoid 2 calls (and wait until\n     * the first transaction is mined)\n     * @param spender The address which will spend the funds.\n     * @param subtractedValue The amount of tokens to decrease the allowance by.\n     */\n    function decreaseAllowance(\n        address spender,\n        uint256 subtractedValue\n    )\n        public\n        onlyValidAddress(spender)\n        onlySufficientAllowance(msg.sender, spender, subtractedValue)\n        returns (bool)\n    {\n        _allowance[msg.sender][spender] = _allowance[msg.sender][spender].sub(\n            subtractedValue\n        );\n\n        emit Approval(msg.sender, spender, _allowance[msg.sender][spender]);\n\n        return true;\n    }\n\n    /**\n     * @dev Gets total number of tokens in existence\n     */\n    function totalSupply() public view override returns (uint256) {\n        return _totalSupply;\n    }\n\n    /**\n     * @dev Gets the balance of the specified address.\n     * @param owner The address to query the the balance of.\n     * @return An uint256 representing the amount owned by the passed address.\n     */\n    function balanceOf(address owner) public view override returns (uint256) {\n        return _balanceOf[owner];\n    }\n\n    /**\n     * @dev Checks the amount of tokens that an owner allowed to a spender.\n     * @param owner address The address which owns the funds.\n     * @param spender address The address which will spend the funds.\n     * @return A uint256 specifying the amount of tokens still available for the spender.\n     */\n    function allowance(\n        address owner,\n        address spender\n    ) public view override returns (uint256) {\n        return _allowance[owner][spender];\n    }\n}\n",
  "sourcePath": "/Users/tranguyenduy/Documents/GitHub/solidity/fist-truffle/contracts/poker/token.sol",
  "compiler": {
    "name": "solc",
    "version": "0.8.18+commit.87f61d96.Emscripten.clang"
  },
  "schemaVersion": "3.4.12",
  "updatedAt": "2023-03-13T10:03:28.258Z",
  "devdoc": {
    "details": "Implementation of the basic standard token.Based on https://github.com/OpenZeppelin/zeppelin-solidity",
    "kind": "dev",
    "methods": {
      "allowance(address,address)": {
        "details": "Checks the amount of tokens that an owner allowed to a spender.",
        "params": {
          "owner": "address The address which owns the funds.",
          "spender": "address The address which will spend the funds."
        },
        "returns": {
          "_0": "A uint256 specifying the amount of tokens still available for the spender."
        }
      },
      "approve(address,uint256)": {
        "details": "Approves the passed address to spend the specified amount of tokens on behalf of msg.sender. Beware that changing an allowance with this method brings the risk that someone may use both the old and the new allowance by unfortunate transaction ordering. One possible solution to mitigate this race condition is to first reduce the spender's allowance to 0 and set the desired value afterwards: https://github.com/ethereum/EIPs/issues/20#issuecomment-263524729",
        "params": {
          "spender": "The address which will spend the funds.",
          "value": "The amount of tokens to be spent."
        }
      },
      "balanceOf(address)": {
        "details": "Gets the balance of the specified address.",
        "params": {
          "owner": "The address to query the the balance of."
        },
        "returns": {
          "_0": "An uint256 representing the amount owned by the passed address."
        }
      },
      "decreaseAllowance(address,uint256)": {
        "details": "Decreases the amount of tokens that an owner allowed to a spender. approve should be called when _allowance[spender] == 0. To decrement allowed value is better to use this function to avoid 2 calls (and wait until the first transaction is mined)",
        "params": {
          "spender": "The address which will spend the funds.",
          "subtractedValue": "The amount of tokens to decrease the allowance by."
        }
      },
      "increaseAllowance(address,uint256)": {
        "details": "Increases the amount of tokens that an owner allowed to a spender. approve should be called when _allowance[spender] == 0. To increment allowed value is better to use this function to avoid 2 calls (and wait until the first transaction is mined)",
        "params": {
          "addedValue": "The amount of tokens to increase the allowance by.",
          "spender": "The address which will spend the funds."
        }
      },
      "totalSupply()": {
        "details": "Gets total number of tokens in existence"
      },
      "transfer(address,uint256)": {
        "details": "Transfers token to the specified address",
        "params": {
          "to": "The address to transfer to.",
          "value": "The amount to be transferred."
        }
      },
      "transferFrom(address,address,uint256)": {
        "details": "Transfers tokens from one address to another",
        "params": {
          "from": "address The address which you want to send tokens from",
          "to": "address The address which you want to transfer to",
          "value": "uint256 the amount of tokens to be transferred"
        }
      }
    },
    "title": "Standard ERC20 token",
    "version": 1
  },
  "userdoc": {
    "kind": "user",
    "methods": {},
    "version": 1
  }
}