{
  "contractName": "ZombieAttack",
  "abi": [
    {
      "anonymous": false,
      "inputs": [
        {
          "indexed": false,
          "internalType": "uint256",
          "name": "zombieId",
          "type": "uint256"
        },
        {
          "indexed": false,
          "internalType": "string",
          "name": "name",
          "type": "string"
        },
        {
          "indexed": false,
          "internalType": "uint256",
          "name": "dna",
          "type": "uint256"
        }
      ],
      "name": "NewZombie",
      "type": "event"
    },
    {
      "anonymous": false,
      "inputs": [
        {
          "indexed": true,
          "internalType": "address",
          "name": "previousOwner",
          "type": "address"
        },
        {
          "indexed": true,
          "internalType": "address",
          "name": "newOwner",
          "type": "address"
        }
      ],
      "name": "OwnershipTransferred",
      "type": "event"
    },
    {
      "inputs": [
        {
          "internalType": "uint256",
          "name": "_zombieId",
          "type": "uint256"
        },
        {
          "internalType": "uint256",
          "name": "_newDna",
          "type": "uint256"
        }
      ],
      "name": "changeDna",
      "outputs": [],
      "stateMutability": "nonpayable",
      "type": "function"
    },
    {
      "inputs": [
        {
          "internalType": "uint256",
          "name": "_zombieId",
          "type": "uint256"
        },
        {
          "internalType": "string",
          "name": "_newName",
          "type": "string"
        }
      ],
      "name": "changeName",
      "outputs": [],
      "stateMutability": "nonpayable",
      "type": "function"
    },
    {
      "inputs": [
        {
          "internalType": "string",
          "name": "_name",
          "type": "string"
        }
      ],
      "name": "createRandomZombie",
      "outputs": [],
      "stateMutability": "nonpayable",
      "type": "function"
    },
    {
      "inputs": [
        {
          "internalType": "uint256",
          "name": "_zombieId",
          "type": "uint256"
        },
        {
          "internalType": "uint256",
          "name": "_kittyId",
          "type": "uint256"
        }
      ],
      "name": "feedOnKitty",
      "outputs": [],
      "stateMutability": "nonpayable",
      "type": "function"
    },
    {
      "inputs": [
        {
          "internalType": "address",
          "name": "_owner",
          "type": "address"
        }
      ],
      "name": "getZombiesByOwner",
      "outputs": [
        {
          "internalType": "uint256[]",
          "name": "",
          "type": "uint256[]"
        }
      ],
      "stateMutability": "view",
      "type": "function"
    },
    {
      "inputs": [],
      "name": "isOwner",
      "outputs": [
        {
          "internalType": "bool",
          "name": "",
          "type": "bool"
        }
      ],
      "stateMutability": "view",
      "type": "function"
    },
    {
      "inputs": [
        {
          "internalType": "uint256",
          "name": "_zombieId",
          "type": "uint256"
        }
      ],
      "name": "levelUp",
      "outputs": [],
      "stateMutability": "payable",
      "type": "function"
    },
    {
      "inputs": [],
      "name": "owner",
      "outputs": [
        {
          "internalType": "address",
          "name": "",
          "type": "address"
        }
      ],
      "stateMutability": "view",
      "type": "function"
    },
    {
      "inputs": [],
      "name": "renounceOwnership",
      "outputs": [],
      "stateMutability": "nonpayable",
      "type": "function"
    },
    {
      "inputs": [
        {
          "internalType": "address",
          "name": "_address",
          "type": "address"
        }
      ],
      "name": "setKittyContractAddress",
      "outputs": [],
      "stateMutability": "nonpayable",
      "type": "function"
    },
    {
      "inputs": [
        {
          "internalType": "uint256",
          "name": "_fee",
          "type": "uint256"
        }
      ],
      "name": "setLevelUpFee",
      "outputs": [],
      "stateMutability": "nonpayable",
      "type": "function"
    },
    {
      "inputs": [
        {
          "internalType": "address",
          "name": "newOwner",
          "type": "address"
        }
      ],
      "name": "transferOwnership",
      "outputs": [],
      "stateMutability": "nonpayable",
      "type": "function"
    },
    {
      "inputs": [],
      "name": "withdraw",
      "outputs": [],
      "stateMutability": "nonpayable",
      "type": "function"
    },
    {
      "inputs": [
        {
          "internalType": "uint256",
          "name": "",
          "type": "uint256"
        }
      ],
      "name": "zombieToOwner",
      "outputs": [
        {
          "internalType": "address",
          "name": "",
          "type": "address"
        }
      ],
      "stateMutability": "view",
      "type": "function"
    },
    {
      "inputs": [
        {
          "internalType": "uint256",
          "name": "",
          "type": "uint256"
        }
      ],
      "name": "zombies",
      "outputs": [
        {
          "internalType": "string",
          "name": "name",
          "type": "string"
        },
        {
          "internalType": "uint256",
          "name": "dna",
          "type": "uint256"
        },
        {
          "internalType": "uint32",
          "name": "level",
          "type": "uint32"
        },
        {
          "internalType": "uint32",
          "name": "readyTime",
          "type": "uint32"
        },
        {
          "internalType": "uint16",
          "name": "winCount",
          "type": "uint16"
        },
        {
          "internalType": "uint16",
          "name": "lossCount",
          "type": "uint16"
        }
      ],
      "stateMutability": "view",
      "type": "function"
    },
    {
      "inputs": [
        {
          "internalType": "uint256",
          "name": "_zombieId",
          "type": "uint256"
        },
        {
          "internalType": "uint256",
          "name": "_targetId",
          "type": "uint256"
        }
      ],
      "name": "attack",
      "outputs": [],
      "stateMutability": "nonpayable",
      "type": "function"
    }
  ],
  "bytecode": "0x60806040526010600155600154600a6200001a919062000295565b6002556201518060035566038d7ea4c6800060085560006009556046600a553480156200004657600080fd5b50336000806101000a81548173ffffffffffffffffffffffffffffffffffffffff021916908373ffffffffffffffffffffffffffffffffffffffff16021790555060008054906101000a900473ffffffffffffffffffffffffffffffffffffffff1673ffffffffffffffffffffffffffffffffffffffff16600073ffffffffffffffffffffffffffffffffffffffff167f8be0079c531659141344cd1fd0a4f28419497f9722a3daafe3b4186f6b6457e060405160405180910390a3620002e6565b7f4e487b7100000000000000000000000000000000000000000000000000000000600052601160045260246000fd5b60008160011c9050919050565b6000808291508390505b600185111562000196578086048111156200016e576200016d62000108565b5b60018516156200017e5780820291505b80810290506200018e8562000137565b94506200014e565b94509492505050565b600082620001b1576001905062000284565b81620001c1576000905062000284565b8160018114620001da5760028114620001e5576200021b565b600191505062000284565b60ff841115620001fa57620001f962000108565b5b8360020a91508482111562000214576200021362000108565b5b5062000284565b5060208310610133831016604e8410600b8410161715620002555782820a9050838111156200024f576200024e62000108565b5b62000284565b62000264848484600162000144565b925090508184048111156200027e576200027d62000108565b5b81810290505b9392505050565b6000819050919050565b6000620002a2826200028b565b9150620002af836200028b565b9250620002de7fffffffffffffffffffffffffffffffffffffffffffffffffffffffffffffffff84846200019f565b905092915050565b61250680620002f66000396000f3fe6080604052600436106100f35760003560e01c8063715018a61161008a578063c39cbef111610059578063c39cbef1146102f8578063ccf670f814610321578063e1fa76381461034a578063f2fde38b14610373576100f3565b8063715018a6146102625780637bff0a01146102795780638da5cb5b146102a25780638f32d59b146102cd576100f3565b80634412e104116100c65780634412e10414610196578063528b7b8f146101d35780635f4623f1146102105780635faf288014610239576100f3565b80630ce90ec2146100f857806317a7f4cc146101145780632052465e1461013d5780633ccfd60b1461017f575b600080fd5b610112600480360381019061010d9190611623565b61039c565b005b34801561012057600080fd5b5061013b60048036038101906101369190611650565b610453565b005b34801561014957600080fd5b50610164600480360381019061015f9190611623565b610571565b6040516101769695949392919061176b565b60405180910390f35b34801561018b57600080fd5b50610194610681565b005b3480156101a257600080fd5b506101bd60048036038101906101b89190611831565b6106e8565b6040516101ca919061191c565b60405180910390f35b3480156101df57600080fd5b506101fa60048036038101906101f59190611623565b61083a565b604051610207919061194d565b60405180910390f35b34801561021c57600080fd5b5061023760048036038101906102329190611831565b61086d565b005b34801561024557600080fd5b50610260600480360381019061025b9190611650565b6108c2565b005b34801561026e57600080fd5b506102776109aa565b005b34801561028557600080fd5b506102a0600480360381019061029b9190611a9d565b610a79565b005b3480156102ae57600080fd5b506102b7610afa565b6040516102c4919061194d565b60405180910390f35b3480156102d957600080fd5b506102e2610b23565b6040516102ef9190611b01565b60405180910390f35b34801561030457600080fd5b5061031f600480360381019061031a9190611b7c565b610b7a565b005b34801561032d57600080fd5b5061034860048036038101906103439190611623565b610c6e565b005b34801561035657600080fd5b50610371600480360381019061036c9190611650565b610c89565b005b34801561037f57600080fd5b5061039a60048036038101906103959190611831565b610f23565b005b60085434146103aa57600080fd5b600481815481106103be576103bd611bdc565b5b9060005260206000209060030201600201600081819054906101000a900463ffffffff16809291906103ef90611c3a565b91906101000a81548163ffffffff021916908363ffffffff1602179055506004828154811061042157610420611bdc565b5b906000526020600020906003020160020160006101000a81548163ffffffff021916908363ffffffff16021790555050565b6000600760009054906101000a900473ffffffffffffffffffffffffffffffffffffffff1673ffffffffffffffffffffffffffffffffffffffff1663e98b7f4d836040518263ffffffff1660e01b81526004016104b09190611c66565b61014060405180830381865afa1580156104ce573d6000803e3d6000fd5b505050506040513d601f19601f820116820180604052508101906104f29190611cc2565b9091929394959697985090919293949596975090919293949596509091929394955090919293945090919293509091925090915090508091505061056c83826040518060400160405280600581526020017f6b69747479000000000000000000000000000000000000000000000000000000815250610f40565b505050565b6004818154811061058157600080fd5b90600052602060002090600302016000915090508060000180546105a490611dd0565b80601f01602080910402602001604051908101604052809291908181526020018280546105d090611dd0565b801561061d5780601f106105f25761010080835404028352916020019161061d565b820191906000526020600020905b81548152906001019060200180831161060057829003601f168201915b5050505050908060010154908060020160009054906101000a900463ffffffff16908060020160049054906101000a900463ffffffff16908060020160089054906101000a900461ffff169080600201600a9054906101000a900461ffff16905086565b610689610b23565b61069257600080fd5b600061069c610afa565b90508073ffffffffffffffffffffffffffffffffffffffff166108fc479081150290604051600060405180830381858888f193505050501580156106e4573d6000803e3d6000fd5b5050565b60606000600660008473ffffffffffffffffffffffffffffffffffffffff1673ffffffffffffffffffffffffffffffffffffffff1681526020019081526020016000205467ffffffffffffffff81111561074557610744611972565b5b6040519080825280602002602001820160405280156107735781602001602082028036833780820191505090505b5090506000805b60048054905081101561082f578473ffffffffffffffffffffffffffffffffffffffff166005600083815260200190815260200160002060009054906101000a900473ffffffffffffffffffffffffffffffffffffffff1673ffffffffffffffffffffffffffffffffffffffff160361081c578083838151811061080157610800611bdc565b5b602002602001018181525050818061081890611e01565b9250505b808061082790611e01565b91505061077a565b508192505050919050565b60056020528060005260406000206000915054906101000a900473ffffffffffffffffffffffffffffffffffffffff1681565b610875610b23565b61087e57600080fd5b80600760006101000a81548173ffffffffffffffffffffffffffffffffffffffff021916908373ffffffffffffffffffffffffffffffffffffffff16021790555050565b60148281600482815481106108da576108d9611bdc565b5b906000526020600020906003020160020160009054906101000a900463ffffffff1663ffffffff16101561090d57600080fd5b836005600082815260200190815260200160002060009054906101000a900473ffffffffffffffffffffffffffffffffffffffff1673ffffffffffffffffffffffffffffffffffffffff163373ffffffffffffffffffffffffffffffffffffffff161461097957600080fd5b836004868154811061098e5761098d611bdc565b5b9060005260206000209060030201600101819055505050505050565b6109b2610b23565b6109bb57600080fd5b600073ffffffffffffffffffffffffffffffffffffffff1660008054906101000a900473ffffffffffffffffffffffffffffffffffffffff1673ffffffffffffffffffffffffffffffffffffffff167f8be0079c531659141344cd1fd0a4f28419497f9722a3daafe3b4186f6b6457e060405160405180910390a360008060006101000a81548173ffffffffffffffffffffffffffffffffffffffff021916908373ffffffffffffffffffffffffffffffffffffffff160217905550565b6000600660003373ffffffffffffffffffffffffffffffffffffffff1673ffffffffffffffffffffffffffffffffffffffff1681526020019081526020016000205414610ac557600080fd5b6000610ad0826110dc565b9050606481610adf9190611e78565b81610aea9190611ea9565b9050610af68282611121565b5050565b60008060009054906101000a900473ffffffffffffffffffffffffffffffffffffffff16905090565b60008060009054906101000a900473ffffffffffffffffffffffffffffffffffffffff1673ffffffffffffffffffffffffffffffffffffffff163373ffffffffffffffffffffffffffffffffffffffff1614905090565b6002838160048281548110610b9257610b91611bdc565b5b906000526020600020906003020160020160009054906101000a900463ffffffff1663ffffffff161015610bc557600080fd5b846005600082815260200190815260200160002060009054906101000a900473ffffffffffffffffffffffffffffffffffffffff1673ffffffffffffffffffffffffffffffffffffffff163373ffffffffffffffffffffffffffffffffffffffff1614610c3157600080fd5b848460048881548110610c4757610c46611bdc565b5b90600052602060002090600302016000019182610c65929190612094565b50505050505050565b610c76610b23565b610c7f57600080fd5b8060088190555050565b816005600082815260200190815260200160002060009054906101000a900473ffffffffffffffffffffffffffffffffffffffff1673ffffffffffffffffffffffffffffffffffffffff163373ffffffffffffffffffffffffffffffffffffffff1614610cf557600080fd5b600060048481548110610d0b57610d0a611bdc565b5b90600052602060002090600302019050600060048481548110610d3157610d30611bdc565b5b906000526020600020906003020190506000610d4d6064611391565b9050600a548111610e8157610d8260018460020160089054906101000a900461ffff1661ffff166113f190919063ffffffff16565b8360020160086101000a81548161ffff021916908361ffff160217905550610dce60018460020160009054906101000a900463ffffffff1663ffffffff1661142590919063ffffffff16565b8360020160006101000a81548163ffffffff021916908363ffffffff160217905550610e1a600183600201600a9054906101000a900461ffff1661ffff166113f190919063ffffffff16565b82600201600a6101000a81548161ffff021916908361ffff160217905550610e7c8683600101546040518060400160405280600681526020017f7a6f6d6269650000000000000000000000000000000000000000000000000000815250610f40565b610f1b565b610eab600184600201600a9054906101000a900461ffff1661ffff166113f190919063ffffffff16565b83600201600a6101000a81548161ffff021916908361ffff160217905550610ef360018360020160089054906101000a900461ffff1661ffff166113f190919063ffffffff16565b8260020160086101000a81548161ffff021916908361ffff160217905550610f1a8361145d565b5b505050505050565b610f2b610b23565b610f3457600080fd5b610f3d81611490565b50565b826005600082815260200190815260200160002060009054906101000a900473ffffffffffffffffffffffffffffffffffffffff1673ffffffffffffffffffffffffffffffffffffffff163373ffffffffffffffffffffffffffffffffffffffff1614610fac57600080fd5b600060048581548110610fc257610fc1611bdc565b5b90600052602060002090600302019050610fdb81611586565b610fe457600080fd5b60025484610ff29190611e78565b9350600060028583600101546110089190612164565b6110129190612198565b905060405160200161102390612220565b604051602081830303815290604052805190602001208460405160200161104a9190612266565b604051602081830303815290604052805190602001200361108c5760636064826110749190611e78565b8261107f9190611ea9565b6110899190612164565b90505b6110cb6040518060400160405280600681526020017f4e6f4e616d65000000000000000000000000000000000000000000000000000081525082611121565b6110d48261145d565b505050505050565b600080826040516020016110f09190612266565b6040516020818303038152906040528051906020012060001c9050600254816111199190611e78565b915050919050565b60046040518060c00160405280848152602001838152602001600163ffffffff168152602001600354426111559190612164565b63ffffffff168152602001600061ffff168152602001600061ffff16815250908060018154018082558091505060019003906000526020600020906003020160009091909190915060008201518160000190816111b2919061227d565b506020820151816001015560408201518160020160006101000a81548163ffffffff021916908363ffffffff16021790555060608201518160020160046101000a81548163ffffffff021916908363ffffffff16021790555060808201518160020160086101000a81548161ffff021916908361ffff16021790555060a082015181600201600a6101000a81548161ffff021916908361ffff1602179055505050600060016004805490506112679190611ea9565b9050336005600083815260200190815260200160002060006101000a81548173ffffffffffffffffffffffffffffffffffffffff021916908373ffffffffffffffffffffffffffffffffffffffff16021790555061130e6001600660003373ffffffffffffffffffffffffffffffffffffffff1673ffffffffffffffffffffffffffffffffffffffff168152602001908152602001600020546115ad90919063ffffffff16565b600660003373ffffffffffffffffffffffffffffffffffffffff1673ffffffffffffffffffffffffffffffffffffffff168152602001908152602001600020819055507f88f026aacbbecc90c18411df4b1185fd8d9be2470f1962f192bf84a27d0704b78184846040516113849392919061234f565b60405180910390a1505050565b60006113a960016009546115ad90919063ffffffff16565b6009819055508142336009546040516020016113c7939291906123f6565b6040516020818303038152906040528051906020012060001c6113ea9190611e78565b9050919050565b60008082846114009190612433565b90508361ffff168161ffff16101561141b5761141a612469565b5b8091505092915050565b60008082846114349190612498565b90508363ffffffff168163ffffffff16101561145357611452612469565b5b8091505092915050565b6003544261146b9190612164565b8160020160046101000a81548163ffffffff021916908363ffffffff16021790555050565b600073ffffffffffffffffffffffffffffffffffffffff168173ffffffffffffffffffffffffffffffffffffffff16036114c957600080fd5b8073ffffffffffffffffffffffffffffffffffffffff1660008054906101000a900473ffffffffffffffffffffffffffffffffffffffff1673ffffffffffffffffffffffffffffffffffffffff167f8be0079c531659141344cd1fd0a4f28419497f9722a3daafe3b4186f6b6457e060405160405180910390a3806000806101000a81548173ffffffffffffffffffffffffffffffffffffffff021916908373ffffffffffffffffffffffffffffffffffffffff16021790555050565b6000428260020160049054906101000a900463ffffffff1663ffffffff1611159050919050565b60008082846115bc9190612164565b9050838110156115cf576115ce612469565b5b8091505092915050565b6000604051905090565b600080fd5b600080fd5b6000819050919050565b611600816115ed565b811461160b57600080fd5b50565b60008135905061161d816115f7565b92915050565b600060208284031215611639576116386115e3565b5b60006116478482850161160e565b91505092915050565b60008060408385031215611667576116666115e3565b5b60006116758582860161160e565b92505060206116868582860161160e565b9150509250929050565b600081519050919050565b600082825260208201905092915050565b60005b838110156116ca5780820151818401526020810190506116af565b60008484015250505050565b6000601f19601f8301169050919050565b60006116f282611690565b6116fc818561169b565b935061170c8185602086016116ac565b611715816116d6565b840191505092915050565b611729816115ed565b82525050565b600063ffffffff82169050919050565b6117488161172f565b82525050565b600061ffff82169050919050565b6117658161174e565b82525050565b600060c082019050818103600083015261178581896116e7565b90506117946020830188611720565b6117a1604083018761173f565b6117ae606083018661173f565b6117bb608083018561175c565b6117c860a083018461175c565b979650505050505050565b600073ffffffffffffffffffffffffffffffffffffffff82169050919050565b60006117fe826117d3565b9050919050565b61180e816117f3565b811461181957600080fd5b50565b60008135905061182b81611805565b92915050565b600060208284031215611847576118466115e3565b5b60006118558482850161181c565b91505092915050565b600081519050919050565b600082825260208201905092915050565b6000819050602082019050919050565b611893816115ed565b82525050565b60006118a5838361188a565b60208301905092915050565b6000602082019050919050565b60006118c98261185e565b6118d38185611869565b93506118de8361187a565b8060005b8381101561190f5781516118f68882611899565b9750611901836118b1565b9250506001810190506118e2565b5085935050505092915050565b6000602082019050818103600083015261193681846118be565b905092915050565b611947816117f3565b82525050565b6000602082019050611962600083018461193e565b92915050565b600080fd5b600080fd5b7f4e487b7100000000000000000000000000000000000000000000000000000000600052604160045260246000fd5b6119aa826116d6565b810181811067ffffffffffffffff821117156119c9576119c8611972565b5b80604052505050565b60006119dc6115d9565b90506119e882826119a1565b919050565b600067ffffffffffffffff821115611a0857611a07611972565b5b611a11826116d6565b9050602081019050919050565b82818337600083830152505050565b6000611a40611a3b846119ed565b6119d2565b905082815260208101848484011115611a5c57611a5b61196d565b5b611a67848285611a1e565b509392505050565b600082601f830112611a8457611a83611968565b5b8135611a94848260208601611a2d565b91505092915050565b600060208284031215611ab357611ab26115e3565b5b600082013567ffffffffffffffff811115611ad157611ad06115e8565b5b611add84828501611a6f565b91505092915050565b60008115159050919050565b611afb81611ae6565b82525050565b6000602082019050611b166000830184611af2565b92915050565b600080fd5b600080fd5b60008083601f840112611b3c57611b3b611968565b5b8235905067ffffffffffffffff811115611b5957611b58611b1c565b5b602083019150836001820283011115611b7557611b74611b21565b5b9250929050565b600080600060408486031215611b9557611b946115e3565b5b6000611ba38682870161160e565b935050602084013567ffffffffffffffff811115611bc457611bc36115e8565b5b611bd086828701611b26565b92509250509250925092565b7f4e487b7100000000000000000000000000000000000000000000000000000000600052603260045260246000fd5b7f4e487b7100000000000000000000000000000000000000000000000000000000600052601160045260246000fd5b6000611c458261172f565b915063ffffffff8203611c5b57611c5a611c0b565b5b600182019050919050565b6000602082019050611c7b6000830184611720565b92915050565b611c8a81611ae6565b8114611c9557600080fd5b50565b600081519050611ca781611c81565b92915050565b600081519050611cbc816115f7565b92915050565b6000806000806000806000806000806101408b8d031215611ce657611ce56115e3565b5b6000611cf48d828e01611c98565b9a50506020611d058d828e01611c98565b9950506040611d168d828e01611cad565b9850506060611d278d828e01611cad565b9750506080611d388d828e01611cad565b96505060a0611d498d828e01611cad565b95505060c0611d5a8d828e01611cad565b94505060e0611d6b8d828e01611cad565b935050610100611d7d8d828e01611cad565b925050610120611d8f8d828e01611cad565b9150509295989b9194979a5092959850565b7f4e487b7100000000000000000000000000000000000000000000000000000000600052602260045260246000fd5b60006002820490506001821680611de857607f821691505b602082108103611dfb57611dfa611da1565b5b50919050565b6000611e0c826115ed565b91507fffffffffffffffffffffffffffffffffffffffffffffffffffffffffffffffff8203611e3e57611e3d611c0b565b5b600182019050919050565b7f4e487b7100000000000000000000000000000000000000000000000000000000600052601260045260246000fd5b6000611e83826115ed565b9150611e8e836115ed565b925082611e9e57611e9d611e49565b5b828206905092915050565b6000611eb4826115ed565b9150611ebf836115ed565b9250828203905081811115611ed757611ed6611c0b565b5b92915050565b600082905092915050565b60008190508160005260206000209050919050565b60006020601f8301049050919050565b600082821b905092915050565b600060088302611f4a7fffffffffffffffffffffffffffffffffffffffffffffffffffffffffffffffff82611f0d565b611f548683611f0d565b95508019841693508086168417925050509392505050565b6000819050919050565b6000611f91611f8c611f87846115ed565b611f6c565b6115ed565b9050919050565b6000819050919050565b611fab83611f76565b611fbf611fb782611f98565b848454611f1a565b825550505050565b600090565b611fd4611fc7565b611fdf818484611fa2565b505050565b5b8181101561200357611ff8600082611fcc565b600181019050611fe5565b5050565b601f8211156120485761201981611ee8565b61202284611efd565b81016020851015612031578190505b61204561203d85611efd565b830182611fe4565b50505b505050565b600082821c905092915050565b600061206b6000198460080261204d565b1980831691505092915050565b6000612084838361205a565b9150826002028217905092915050565b61209e8383611edd565b67ffffffffffffffff8111156120b7576120b6611972565b5b6120c18254611dd0565b6120cc828285612007565b6000601f8311600181146120fb57600084156120e9578287013590505b6120f38582612078565b86555061215b565b601f19841661210986611ee8565b60005b828110156121315784890135825560018201915060208501945060208101905061210c565b8683101561214e578489013561214a601f89168261205a565b8355505b6001600288020188555050505b50505050505050565b600061216f826115ed565b915061217a836115ed565b925082820190508082111561219257612191611c0b565b5b92915050565b60006121a3826115ed565b91506121ae836115ed565b9250826121be576121bd611e49565b5b828204905092915050565b600081905092915050565b7f6b69747479000000000000000000000000000000000000000000000000000000600082015250565b600061220a6005836121c9565b9150612215826121d4565b600582019050919050565b600061222b826121fd565b9150819050919050565b600061224082611690565b61224a81856121c9565b935061225a8185602086016116ac565b80840191505092915050565b60006122728284612235565b915081905092915050565b61228682611690565b67ffffffffffffffff81111561229f5761229e611972565b5b6122a98254611dd0565b6122b4828285612007565b600060209050601f8311600181146122e757600084156122d5578287015190505b6122df8582612078565b865550612347565b601f1984166122f586611ee8565b60005b8281101561231d578489015182556001820191506020850194506020810190506122f8565b8683101561233a5784890151612336601f89168261205a565b8355505b6001600288020188555050505b505050505050565b60006060820190506123646000830186611720565b818103602083015261237681856116e7565b90506123856040830184611720565b949350505050565b6000819050919050565b6123a86123a3826115ed565b61238d565b82525050565b60008160601b9050919050565b60006123c6826123ae565b9050919050565b60006123d8826123bb565b9050919050565b6123f06123eb826117f3565b6123cd565b82525050565b60006124028286612397565b60208201915061241282856123df565b6014820191506124228284612397565b602082019150819050949350505050565b600061243e8261174e565b91506124498361174e565b9250828201905061ffff81111561246357612462611c0b565b5b92915050565b7f4e487b7100000000000000000000000000000000000000000000000000000000600052600160045260246000fd5b60006124a38261172f565b91506124ae8361172f565b9250828201905063ffffffff8111156124ca576124c9611c0b565b5b9291505056fea26469706673582212206ccd0219a6de2f164e1f06a83c0a13addb5b44223bf9eb960a9e29083d80d07064736f6c63430008120033",
  "immutableReferences": {},
  "source": "// SPDX-License-Identifier: MIT\npragma solidity ^0.8.9;\n\nimport \"./zombiehelper.sol\";\n\ncontract ZombieAttack is ZombieHelper {\n    using SafeMath for uint256;\n    using SafeMath16 for uint16;\n    using SafeMath32 for uint32;\n    uint randNonce = 0;\n    uint attackVictoryProbability = 70;\n\n    function randMod(uint _modulus) internal returns (uint) {\n        randNonce = randNonce.add(1);\n        return\n            uint(\n                keccak256(\n                    abi.encodePacked(block.timestamp, msg.sender, randNonce)\n                )\n            ) % _modulus;\n    }\n\n    function attack(\n        uint _zombieId,\n        uint _targetId\n    ) external onlyOwnerOf(_zombieId) {\n        Zombie storage myZombie = zombies[_zombieId];\n        Zombie storage enemyZombie = zombies[_targetId];\n        uint rand = randMod(100);\n        if (rand <= attackVictoryProbability) {\n            myZombie.winCount = myZombie.winCount.add(1);\n            myZombie.level = myZombie.level.add(1);\n            enemyZombie.lossCount = enemyZombie.lossCount.add(1);\n            feedAndMultiply(_zombieId, enemyZombie.dna, \"zombie\");\n        } else {\n            myZombie.lossCount = myZombie.lossCount.add(1);\n            enemyZombie.winCount = enemyZombie.winCount.add(1);\n            _triggerCooldown(myZombie);\n        }\n    }\n}\n",
  "sourcePath": "/Users/tranguyenduy/Documents/GitHub/solidity/fist-truffle/contracts/zombieattack.sol",
  "compiler": {
    "name": "solc",
    "version": "0.8.18+commit.87f61d96.Emscripten.clang"
  },
  "schemaVersion": "3.4.12",
  "updatedAt": "2023-03-13T04:14:58.807Z",
  "devdoc": {
    "kind": "dev",
    "methods": {
      "isOwner()": {
        "returns": {
          "_0": "true if `msg.sender` is the owner of the contract."
        }
      },
      "owner()": {
        "returns": {
          "_0": "the address of the owner."
        }
      },
      "renounceOwnership()": {
        "details": "Allows the current owner to relinquish control of the contract."
      },
      "transferOwnership(address)": {
        "details": "Allows the current owner to transfer control of the contract to a newOwner.",
        "params": {
          "newOwner": "The address to transfer ownership to."
        }
      }
    },
    "version": 1
  },
  "userdoc": {
    "kind": "user",
    "methods": {
      "renounceOwnership()": {
        "notice": "Renouncing to ownership will leave the contract without an owner. It will not be possible to call the functions with the `onlyOwner` modifier anymore."
      }
    },
    "version": 1
  }
}